:10000000003C0120A5F902002D1203002D1203006F
:100010002D1203002D1203002D1203002D120300D8
:100020002D1203002D1203002D1203002D120300C8
:0C0030002D1203002D120300356A0100A0
:10003C002DE9F04F9BB00279044602F0070001282D
:10004C0040F0C581206842F29451C2F200010B6865
:10005C00017D2BB11F798F4205D01B68002BF9D184
:10006C00002727B9B3E19F68002F00F0B081838887
:10007C000125082B00F2AC81DFE813F00900AA017E
:10008C00AA011700260095002001AA012C011007D7
:10009C0000F1E683E07A002840F099813868002866
:1000AC0000F0DE83804700F0DBBBE37A120700F13F
:1000BC003A81012B00F0E481002B40F08881E0684C
:1000CC00008828F015FCCBE3100700F144810020D8
:1000DC000DF1340AADF8320050460021122233F0F3
:1000EC00B1F8E668E07A374637F8011B0528ADF819
:1000FC00341000F26C81DFE810F006000E023002C2
:10010C0056028B02A30220680DF1480890F8149057
:10011C000027B57848460421002243468DF84870E4
:10012C00009719F06DFF9DF8480050B1F11C0F2D90
:10013C0028BF0F250AF103002A468DF8365032F0FD
:10014C00DFFD0DA94846012228F0A0FB6FF07602D6
:10015C00B82808BF6FF07502216800284B7D08BFD6
:10016C000246002B40F07C8348880025002840F094
:10017C002F81BDF83430A77A8DF848201A0A087DF3
:10018C008DF84A20032206318DF849300126CDE93D
:10019C00047204220023CDE90066CDE90265CDF896
:1001AC00188000F052BC100700F1168100200DF1F0
:1001BC004808E5688DF8320040460021222233F0D1
:1001CC0041F8E07A2988AA780628ADF848108DF80D
:1001DC004A2000F2FC80DFE810F007007E02880263
:1001EC009202A402CC02DC02B5F80300AF1DADF8FC
:1001FC004C0020686E79007D00250DF1320305213D
:10020C000422009519F0FCFE9DF8320050B10F2E1F
:10021C0028BF0F2608F10900394632468DF8506088
:10022C0032F06EFDE0683E44218A801B0144C8B266
:10023C008DF8601088B1092824BF08208DF8600063
:10024C0008F119073846FF21082232F0FBFF9DF810
:10025C0060203846314632F053FDBDF8481031B1BC
:10026C002068007D30F0D8FE002800F0C98320689B
:10027C00BDF84810007D9DF84A2019F071F900284E
:10028C0000F0658306469DF83200BDF84C10B18035
:10029C0030B106F1080008F10801102232F030FDEF
:1002AC009DF8602006F1190008F1190132F028FDC3
:1002BC009DF8600030762CF0A1FD52E3100700F1A0
:1002CC00CF82E07A022800F282807969002918BF77
:1002DC008847C5E2100700F1C382E17A082900F2D1
:1002EC0076800020DFE811F00A0092029F02AF0234
:1002FC00090091029E02AE02B40201217A6A002A20
:10030C0000F0AE82E06803785F1EFD2F8DF8483058
:10031C0000F2A882B0F801008DF84C10ADF84A003C
:10032C0012A890479CE2002B51D10630E168129044
:10033C000888ADF84C0012A82BF093FBF968002943
:10034C0000F08E822068E26806300D901088ADF8BF
:10035C0038000DA883E20DAEE5683046002112226C
:10036C0032F070FF12A80021142232F06BFFE07AF9
:10037C00022803D300F0B580032828D129788DF802
:10038C004D10B5F801200029ADF8342008BF012824
:10039C000BD1EA78291DF01C0F2A28BF0F22B51C9F
:1003AC008DF8362032F0ACFC1695B96B002579B17E
:1003BC002068E27A0630129001208DF84E0012A8C7
:1003CC008DF84C2014968DF85450884700E0012588
:1003DC0028461BB0BDE8F08F0DF14809E56848468A
:1003EC000021222232F02EFF0DA80021142232F01F
:1003FC0029FF2E46E27A16F8011B062A8DF83910D1
:10040C0003D16878AE1C8DF84000304630F8023BC2
:10041C00062A4FF00105ADF84830D9D8DFE812F0C4
:10042C001D0008001D001D001D0007004001CFE746
:10043C00B6F80310B078ADF84C10757906368DF817
:10044C004A000F2D28BF0F2509F1090031462A4615
:10045C008DF8505032F054FC7019796C002900F072
:10046C00FF81E27A032A1CBF00788DF84A002068CD
:10047C008DF8382006300D90CDF844900DA8EEE1A3
:10048C00B9680025ADF8345019B10630129012A895
:10049C00884721680DAB087D89880022009519F0EA
:1004AC00AFFDBDF83420002A00F0DA812168A37A70
:1004BC008DF84820120A087D8DF84920012712AAD0
:1004CC00022600250631CDE90077CDE90275CDE98C
:1004DC00043606920322002307970DF077F8FF25C8
:1004EC0076E728788DF854006E78002E00F078812D
:1004FC00700033F0EBFB002800F07281804602386C
:10050C00A91E8DF84E608A88013E20F8022F01F159
:10051C000201F8D166E12068427D002A40F0A081FA
:10052C0042880025002A7FF453AF007D89B230F059
:10053C0073FD2168002818BF82460A7DA77A012323
:10054C0006310093002808BF8B2510462A465346D7
:10055C00019724F0B1FBFF253AE796F800802020A4
:10056C0033F0B4FB002800F07F818246B8F1000F15
:10057C0000F0FE810025002605E00135454507F118
:10058C00020780F0FB8120683988007DADF83410BB
:10059C0030F042FD0028F0D0BDF83400F1B2013645
:1005AC002AF81100E9E7206889B2007D1AF0CEF92B
:1005BC002068BDF83410007D2DF0E0FE2168002885
:1005CC00487D4FF0000208BF6FF0740200284FF016
:1005DC0000057FF4FDAE4888002500287FF4F8AEB6
:1005EC00BDF83430A77A8DF848201A0A087D8DF8AA
:1005FC0049308DF84A20012612AA03230631CDE991
:10060C000066CDE90265CDE90473069204221BE273
:10061C00206812AE007D314631F078F8002800F0E9
:10062C001F810546023E206836F8021F007D1AF035
:10063C008DF9013DF7D12068007D2EF0EFFB0FE125
:10064C0020680025007D0DF1320303210022009566
:10065C0019F0D6FCBDF8320000283FF4B9AE206882
:10066C00B47890F8148012AB4046042100228DF827
:10067C004850009519F0C4FC9DF8480050B1F11C8D
:10068C000F2C28BF0F240AF1030022468DF83640A8
:10069C0032F036FB0DA94046012228F0F7F8DFE0D6
:1006AC00002900F0F7804FF0000A796C59B12068EE
:1006BC00E27A06300D900DA88DF83820CDF83CA0CC
:1006CC00CDF844908847BAF1000F00F0C98050462D
:1006DC0032F0AFFDC4E0206889B2007D18F040FF15
:1006EC00002800F0F580002378E2206889B2007DB4
:1006FC0018F0BCFB002800F0F780002200E1080491
:10070C0007D0206889B2007D30F086FC002800F00C
:10071C0079812068BDF84810007D1AF017F9002285
:10072C0071E1080407D0206889B2007D30F074FCB8
:10073C00002800F08C812068BDF84810007D9DF8E1
:10074C004A2018F00DFF064628B922F0DFFB0428DA
:10075C0000F2CB8112AEF96B002900F07A8120688F
:10076C000630CDE90D060DA88847002818BF0120DA
:10077C0070E1206889B2007D18F0F2FE00286FD07D
:10078C00396C00296CD022680632CDE90D200DA8F9
:10079C0065E0080407D0206889B2007D30F03CFC8D
:1007AC00002800F05E81052033F090FA002800F05C
:1007BC00DA8005462068BDF84810007D2A461DF0F9
:1007CC0091FD216806464A7D002A00F07F81002EAB
:1007DC0000F0858101204FF0000A0B900020B2E15F
:1007EC004FF00008B96B49B12068E27A06301290DC
:1007FC0012A88DF84C20CDF850808847B8F1000F26
:10080C002ED0404632F015FD2AE00120B96A39B3EA
:10081C00E268137852788DF848308DF849208DF8BD
:10082C004A001BE00120F96AD1B1E26813785778CD
:10083C0052888DF848308DF84970ADF84A208DF803
:10084C004C000BE00120396B51B18DF8480005E0EC
:10085C00796B29B1E0680088ADF8480012A8884788
:10086C000025B5E58725B3E5E07A21688DF84800C9
:10087C0089208DF84900087D8A88A77A00230631E3
:10088C000126029312ABCDE9006603972DF0C0FE52
:10089C00FF259DE596F80280B8F1000F3FF403AFF9
:1008AC00404633F013FA00283FF4FDAE8246F01CAC
:1008BC00C8F100014FF0FF328DF83A8083180AEB33
:1008CC00020601325B788D1801357370F6D1ECE6B7
:1008DC00BDF8481031B12068007D30F09DFB002838
:1008EC0000F07A818B2378E12068BDF84810007DF8
:1008FC0030F092FB6FF07402002808BF6FF07A02A0
:10090C002168487D002840F07C814888002840F010
:10091C007881BDF848309DF84A70A67A8DF834205D
:10092C001A0A087D8DF835308DF836208DF8377021
:10093C0001270DAA042300250631CDE90077CDE966
:10094C000275CDE90463069205220223C4E522F068
:10095C00DDFA052880F0CB80206812A9007D10F00C
:10096C0055FF0022C4E000200B904FF0890A7CE078
:10097C0020685146007D30F0C9FE0646B8F1000FE4
:10098C0001D0300637D0256895F8148032F0BEFAC5
:10099C000746022000EB46005FFA80F994F80AB093
:1009AC00484633F093F930B30446C7F11000A91D43
:1009BC002070300666700CD0F0B2AAF10202A31EB1
:1009CC0012F8027F01381F7157785F7103F102032F
:1009DC00F6D101270020CDE9027040460422022303
:1009EC00CDE90077CDE904B9069407970CF0EEFD3C
:1009FC00204632F01EFC504632F01BFCFF25E7E48B
:100A0C00852275E085222168487D002840F0F98018
:100A1C004888002840F0F580BDF84830A77A8DF85A
:100A2C0034201A0A087D8DF835308DF836200126D1
:100A3C000DAA032300250631CDE90066CDE9026538
:100A4C00CDE90473069205220323079645E585221A
:100A5C0015E0002046450CD0002818BF2CF0CEF92C
:100A6C000CE000204FF0850A0B900026002500209A
:100A7C0069E0206812A9007D10F0C8FE00222168F0
:100A8C00487D002840F0BD804888002840F0B9809F
:100A9C00BDF848309DF84A70A67A8DF834201A0AB1
:100AAC00087D8DF835308DF836208DF8377001279C
:100ABC000DAA042300250631CDE90077CDE9027596
:100ACC00CDE9046306920522042305E548884FF01E
:100ADC00000A00284FF001000B9033D096BB012088
:100AEC004FF0000A0B9001202DE08922C7E78922E4
:100AFC002168487D002840F084804888002840F018
:100B0C008080E07A00287CD1BDF848309DF84A708E
:100B1C00A67A8DF834201A0A087D8DF835308DF8B8
:100B2C0036200DAA042306318DF8377001270025D5
:100B3C00CDE90463069205220023CDE90077CDE9C7
:100B4C000275C9E40020002841D1D4F800B09BF80C
:100B5C0014000A9022F0DAF98146A07A0B990990D8
:100B6C00701D0427BDF84880002918BFC7B238464D
:100B7C0033F0ACF858B30B9A0446C9F105000BF1ED
:100B8C00060160704FEA182084F800A084F80280F7
:100B9C00E0704AB126713EB1681E221D10F8013F6B
:100BAC00013E02F8013FF9D101260020CDE9026097
:100BBC0009980522CDE904070A980623CDE90066B9
:100BCC00069407960CF002FD204632F032FBC5B1BC
:100BDC00284632F02EFB14E0852312A821684A7DAA
:100BEC007AB94A886AB9E27A012A0AD10A7DA77AC7
:100BFC0001260631CDE900061046012202971DF0B0
:100C0C0090FCFF25FFF7E4BB2DE9F04F8FB08A462F
:100C1C00480723D45FEA0A4000F186805FEACA40A5
:100C2C0000F171825FEA0A6000F1D1825FEA8A709A
:100C3C0000F101835FEA0A5000F145835FEA4A60E4
:100C4C0000F168835FEA8A4000F1C9835FEA4A4099
:100C5C0000F1298400200FB0BDE8F08F46F6D46176
:100C6C00C2F200010878062800F24F83DFE810F08A
:100C7C0007007E024D034D0308034D039E0242F212
:100C8C00AC10C2F20000C27A530700F1A78293079E
:100C9C0000F1ED82120740F13883807B0622002898
:100CAC000A7000F05B8428F01DFE002800F05684CA
:100CBC0042F28446C2F2000605463068406840782D
:100CCC00800740F11784287804AB0321002227F019
:100CDC00B5FA002800F0EE8306980188B4291BD8D9
:100CEC00B421018046F67970C2F2000000784FF40E
:100CFC0000514FF47A7232F096FE42F26C50C2F20E
:100D0C000000016841B142F2E250C2F200000078EA
:100D1C00FF2818BF28788847306840684078C0079B
:100D2C0040F0D8830920CBE346F67978C2F200086C
:100D3C0098F8000018F010FD002800F0DF8105463F
:100D4C0046F2EC60C0F20300008842F2116646F6EF
:100D5C00D46948F2040448F2020BC2F20006C2F253
:100D6C00000902900DE0284615F07EFE284624F07E
:100D7C00A7FE98F8000018F0EFFC0546002800F0DC
:100D8C00BD812878D3280DD1E889A042EBD05845F5
:100D9C005ED048F201018842E8D1284613F09EF853
:100DAC00E4E700BF99F80010002788423ED128786C
:100DBC00012800F099800328D8D142F23460C2F2A5
:100DCC000000007801380128D0D8A878012800F05C
:100DDC00B7800028CAD16878002800F0168142F24A
:100DEC001660C2F200000078002800F05B8142F22D
:100DFC00AC10C2F200000068002800F0538142F2EF
:100E0C001661C2F200010F7042F2AC5246F640710C
:100E1C00C2F20002C2F200011060086084200421BA
:100E2C002DF0C3FC322031F0FEF89FE70A289DD14B
:100E3C0042F26450C2F20000016842F2AC10C2F2FD
:100E4C000000C07A0029287190D0A81C88478DE733
:100E5C00307800283FF48AAF99F8000001287FF41D
:100E6C0085AF32F029FA00287FF480AF688800281B
:100E7C007FF47CAF98F8000000274FF48051ADF858
:100E8C0038700D97CDE90B770A9725F03BFD284676
:100E9C000AA924F007FABDF83400B0F5285FC0F0B9
:100EAC00CD8098F80000022189F801104FF4805190
:100EBC0025F028FD42F2AC10C2F2000098F8006058
:100ECC00077403202FF0D3FE002800F0E6800746BD
:100EDC00023004A9012231F083FE01203880304613
:100EEC0039461CF027F9D8E042F23460C2F2000017
:100EFC000078013801283FF639AF687860B142F2CA
:100F0C00AC13C2F20003187C597C0130C2B28A4285
:100F1C00187401D90120C6E099F80100032839D0D2
:100F2C00022853D001287FF421AF3078002800F03C
:100F3C00BE8032F0C1F9002800F0C4800120B7E077
:100F4C00687800286ED032F019FC4FF6FE7146F22C
:100F5C00080B8842C2F2000B03D1BBF81600884282
:100F6C000BD0ADF81010ABF81610532004A92BF0D1
:100F7C007DFC46F2080BC2F2000B2BF0BDF830F0F2
:100F8C00B9FD8BF8267020F0CBFB48F2020B48F22F
:100F9C000404EBE604AFAB2000213A4628F0E0FF56
:100FAC0004208DF82C000AA80A9719F02DFE98F849
:100FBC0000004FF4805125F0A5FC98F800004FF488
:100FCC00805141F2883232F02EFDCFE64FF4806032
:100FDC0042F2E651ADF810000120C2F20001087097
:100FEC0004A825F063F998F800004FF4805125F01F
:100FFC0089FC42F28451C2F2000198F800000A68A0
:10100C004FF4805132F00FFDB0E611F0E9F942F2E5
:10101C006850C2F20000006800287FF4A7AE20F0F0
:10102C007FFBA3E698F80000022189F802104FF428
:10103C00805140F6B83232F0F6FC97E646F6AC60DA
:10104C00C2F2000000680DF10F0104AA002723F082
:10105C0021F906460298864216D29DF820003146A8
:10106C0000281CBFFD208DF820000420142204ABA6
:10107C002DF0B8FB46F6D41106EB4600C2F2000187
:10108C0001EB80000121417242F2AC10C2F200006F
:10109C00C7730120012103F09FF842F21166C2F2DE
:1010AC00000663E60320002103F096F85EE60020BC
:1010BC0042F2AC11C2F20001C8730120012103F00D
:1010CC008BF853E642F2AC10C2F20000807C48B1BF
:1010DC0042F25450C2F20000006800283FF446AEC1
:1010EC00804743E602208DF8180004A80021022254
:1010FC000023ADF8107025F0E7FE58E78AF40040A5
:10110C000FB0BDE8F08F42F23460C2F200000078FC
:10111C000138012800F2D28046F6D460C2F20000F9
:10112C000178032900F0C280012940F0C78042F207
:10113C00E65046F67972C2F200000021C2F20002BB
:10114C001578017003202FF092FD002800F0B68076
:10115C000646023004A9012231F042FD40F2011092
:10116C003080284631461BF0E5FFA7E046F679753E
:10117C00C2F20005012728784F704FF4805125F0FA
:10118C00C1FB42F2AC10C2F2000000212D780174B8
:10119C0003202FF06CFD002800F0B78006460230CB
:1011AC0004A9012231F01CFD3780AAE042F2AC10F8
:1011BC00C2F200000022827246F67970C2F2000080
:1011CC0000780A700421322232F02DFC9DE016F0DA
:1011DC0069FC8AF080000FB0BDE8F08F027B05231C
:1011EC0092070B705FD5827B002A5CD10023052708
:1011FC000B600F70416842F21662C2F200020127C6
:10120C00177009B90168137042F2AC5546F640707C
:10121C00C2F20005C2F200002960016084200421A2
:10122C002A462DF0C2FA2868002851D064200121EA
:10123C0009F0C4FA50E042F23460C2F200000078C7
:10124C00013801280ED80020CDE9040004A81FF0B5
:10125C00CBFA38B146F67970C2F200000078022160
:10126C0025F08AFD8AF002000FB0BDE8F08F027BFA
:10127C000423D2070B7048D0827B002A00F08080B8
:10128C006FF001000238ADF810000F208DF8180037
:10129C0004A8B421012200231AF032FC04200121FD
:1012AC0002F09AFF31E005200021F9E7817802294C
:1012BC0004D101218170002022F054FE8AF4805068
:1012CC000FB0BDE8F08F8AF400600FB0BDE8F08F6E
:1012DC000520002102F080FF40F2012046F67971D2
:1012EC00C2F200010D78ADF8100005202FF0BFFC04
:1012FC0058B10646023004A9032231F071FC0A20D1
:10130C003080284631461BF015FF8AF004000FB0E0
:10131C00BDE8F08F28F0E6FA20B3054642F2E5501E
:10132C00C2F20000017801390A0601701AD046F6A3
:10133C007976C2F2000630784FF4804129F0B0FC87
:10134C0050B942F21850C2F20000006831F098FB1C
:10135C0010B9287828F0A9FD3078402143F698225E
:10136C0032F061FB42F2E550C2F20000007810B995
:10137C000B2031F098FC8AF040000FB0BDE8F08FE4
:10138C0042F23462C2F200021278013A012ABCD84D
:10139C00002303270B600F70416842F21662C2F201
:1013AC0000020127177009B90168137042F2AC559D
:1013BC0046F64070C2F20005C2F2000029600160DE
:1013CC00842004212A462DF0F0F9286800287AD0D0
:1013DC006420002109F0F2F940F201107EE742F29C
:1013EC008840C2F200000668002E4ED042F2AC18C3
:1013FC004FF0000904ADC2F200084FF0000B05E0FD
:10140C00013901804FF0010B36687EB37468207887
:10141C0000F10F01C9B21029F6D3032100222B468B
:10142C0026F00CFF0028EFD0069801880029E7D1A0
:10143C0046F67970C2F2000000784FF44071ADF8B6
:10144C0028100A21002203230AAF88F80A9000977B
:10145C002BF080FF42F26C50C2F20000016888F859
:10146C000A900029D0D020788847CDE75FEACB706E
:10147C000BD046F67970C2F2000000784FF40051A0
:10148C004FF47A7232F0CFFA08E046F67970C2F275
:10149C00000000784FF4005125F034FA8AF4005023
:1014AC000FB0BDE8F08F14F0D1FD8AF480400FB07E
:1014BC00BDE8F08F306840684078C0071AD10E2024
:1014CC0031F0F1FB16E00320002102F085FE40F222
:1014DC00011003E746F67970C2F2000040F20931C0
:1014EC000078ADF828100AAF0A21002203230097D8
:1014FC002BF030FF306840684178C9073FF405AFE6
:10150C0042F24451C2F20001096819B3287828F05C
:10151C00CCFC10B10E2031F0C6FB46F6797542F2C8
:10152C00E551C2F20005C2F200010C2228780A70C3
:10153C00402143F6982232F076FA40F20A312878AC
:10154C00ADF828100AAF0A210022032300972BF0D4
:10155C0001FFDAE6407880073FF5D7AE0E2031F078
:10156C00A2FBD2E62DE9F04F99B080466FF0070050
:10157C000DF11C0B063098F808105A46ADF85200C5
:10158C00D8F8040018F0E4F9002800F0B5809DF8B4
:10159C001E609DF81F409DF82070BDF8265032F05B
:1015AC00E7F8844240F0A88025F003004FF6F87469
:1015BC0080B2A04200F0A080012F00F29D80022E8C
:1015CC0080F09A80B8F82800ADF84800B8F83200DE
:1015DC00ADF82A009DF82200D0B1D8F804109DF87F
:1015EC001D209DF83830012030F0A2FE08B1CF202C
:1015FC0083E0DFF85807C078012809D1B8F8280033
:10160C0032F098FA20B1417901F0E70108314171CB
:10161C009DF8210068B1BDF82610FF202FF0FCFCCE
:10162C009DF82110D8B141F001012C268DF8211024
:10163C0016E09DF83900002864D09DF83D10FF2974
:10164C0002D0002940F0ED80DFF80407BDF8262019
:10165C00C18A8A4240F0EE800120222607E008264B
:10166C0001F00300012808BF46F01106012037469F
:10167C00B107DFF8DC9658BF67F07F07002808BF7A
:10168C0037469DF8220030B999F80B0018B107F0D5
:10169C002200222813D117F0400A58D0119899F83B
:1016AC000E200178920718D40C291BD8012241F284
:1016BC0090438A401A4245D1032940D012E0F8B237
:1016CC0000F0420042287FF492AF1198007800F0AD
:1016DC00FE0006287FF48BAFDDE7A1F10C0212F1BE
:1016EC000C0F2AD8B9F81600BDF82620824203D177
:1016FC00BDF828002EF06EFBD32007F038F919B096
:10170C00BDE8F08FBDF826002DF038FA0238DFF86E
:10171C004016B0FA80F0CA8A4109BDF82600904202
:10172C0008BF0231002900F08C809DF81E20002A91
:10173C0000F03A8101F1400738E1032902D14078E9
:10174C000D2804D007A82CF0B1FC0128D7D0B9F88B
:10175C002400B8F8441081420AD198F84620B8F811
:10176C004210B8F8280000230093002315F04EFD1A
:10177C009DF82200E0B1B8F84210B8F828002EF01D
:10178C0039FDB8B30646D8F804009DF81D10F27860
:10179C000844417B8A421EBF00227260F170013006
:1017AC0004212FF039FA71688842A8D30130706097
:1017BC0099F80E008007A2D59DF84D0058B1BDF8E0
:1017CC00280031F085F800286FD0D8F80400417853
:1017DC0001F0DF0141709DF82E00A0B3D8F8040091
:1017EC008179013981718DF82E1007F07F0009067F
:1017FC002CD12AE09DF84D00002841D004202FF078
:10180C0036FA00283FF47BAF01464FF4B2700880E3
:10181C00B8F828004880DFF83C0500781BF08AFCFB
:10182C006DE7109A9DF83C002BF0C8FC30B10120FC
:10183C0000261CE790F826000428F8D1002600208A
:10184C0015E70027B2E007F07F000746390702D4FE
:10185C004FF0000A49E0F9B24A0737D4C9069DF89F
:10186C0021103DD5C1F3820212B1072A18BF013AEB
:10187C00002A08BF074601F0E30040EA82012DE090
:10188C0099F86C0001287FF493AF11980078062822
:10189C0003D1BAF1000F7FF48BAFE01DBDF82A1015
:1018AC0080B281423FF42BAF44E1D32007F05FF8C4
:1018BC00DFF8A4040078002800F0AD80DFF89C1459
:1018CC0051F82000C0EB00108100A6E09DF821002B
:1018DC0000F0E00100F0E30040EAD1018DF82110A6
:1018EC00D8F804004FF4805A017299F826000928A0
:1018FC0001D0042829D1B9F81610BDF82600884269
:10190C000AD02DF03BF9022806D09DF8210000F0FA
:10191C00030001287FF4F3AE9DF81E0000285BD075
:10192C0011989DF838100078042808BF02296DD052
:10193C00072808BF042900F0838003287FF4DFAE5A
:10194C0007A8002119F042FED9E6FEB217F0610F8C
:10195C0049D0F00708D0B8F8281007A81FF03AF8BB
:10196C00002871D007F09F070025FEB2B80605D5F8
:10197C0031F01FF907A815A90BF0FAF9700640F120
:10198C003981B8F8281007A80DF152022B4618F02F
:10199C005BF8002800F0818005461198007801283A
:1019AC0008BF4AF0100A25E101F120072DF0E6F8F6
:1019BC000138B0FA80F0400947EA00069DF81E0095
:1019CC0000283FF453AE1198007830F0B1FF012895
:1019DC0018BF07F07E0649E631F0EBF807A815A909
:1019EC000BF0C6F98BE69DF81E00012864D1119806
:1019FC000078032853D005285ED1B8F8281007A822
:101A0C000DF15202002318F01FF878E607A9002008
:101A1C0019F06CF973E6D1480168D1480268BDF839
:101A2C002800904701287FF46AAECE480168BDF8C3
:101A3C0028008847CC480168BDF8280088475EE636
:101A4C0007A822F0F7F85AE630F034F89DF82E107B
:101A5C000546BDF8280021B9B8F8281088423FF493
:101A6C0084AFB9F81610814204D1B84880780028A8
:101A7C003FF47BAFB8F8281007A82A460EF0CCFF2D
:101A8C00002800F09E8030074AF0040ABDF82600BA
:101A9C0048BFE01DADF8520067E70025AAE0BDF88D
:101AAC00260030F015FF38B1B8F8281007A80DF152
:101ABC005202002317F0C8FF9DF82E0088B32DF0BA
:101ACC0037FF00287FF41BAE9DF83900B8B3109A8D
:101ADC009DF83C009DF83D102BF070FB002873D056
:101AEC009DF83D00002878D0109931F0BAFF9DF890
:101AFC002430ADF8520011209DF823209DF82110C0
:101B0C004AF0400A002B08BF0920002A18BF0830F1
:101B1C00002918BF0130D8F804100A5C013A0A54A5
:101B2C0065E09DF81E00012804D111980078032867
:101B3C003FF4E5AD07A8414628F02AFDDFE59DF806
:101B4C002010BDF826000029ADF8520000F0CF801F
:101B5C004020BDF826100BF11D0200EAC7099DF8C4
:101B6C0020004B4622F0E8FE38B1D8F804004AF0C9
:101B7C00200A017801F03F0101709DF8390048B14D
:101B8C00BDF826100BF120002CF072FA4AF0400A36
:101B9C00ADF852009DF81E00012806D0BDF82810A3
:101BAC00BDF8260000221EF023FABDF82810BDF85F
:101BBC0026004A461BF08CF9002818BF4AF0200A70
:101BCC0015E007F0DF07CFE6BDF82610BDF82800BA
:101BDC000B22002324F05CFE91E5BDF82600ADF845
:101BEC00520031F0A7FF002808BF4AF0400A2FF03E
:101BFC0061FF0546A01DBDF8521080B20E1A5B485D
:101C0C0018BF2E460078012805D1E01DB8F8321017
:101C1C0080B281422ED178B2B0F1FF3F3FF76FAD69
:101C2C00002E3FF46CADB8F8080031F0ABFF002883
:101C3C003FF465ADB8F80820D8F80410054630F02C
:101C4C00CFFF9DF81E10002098F80830B8F8282017
:101C5C0016908DF85410BDF8521015ACCDE9006AF1
:101C6C00CDE9020428461CF0BDF968B3284626F0DD
:101C7C0009F844E5B8F828108142CCD0601CBDF8B6
:101C8C00262080B28242C6D2BDF828008142C2D042
:101C9C0031F050FF0028BED0017901390129BAD8A2
:101CAC00408801218DF85410ADF8600015AD284620
:101CBC0029F05AFC0028AED0281D28F07DF9002808
:101CCC00A9D02DF0B5FEA6E72048407800283FF4B7
:101CDC0016AD00208DF81860ADF81900DDF826005F
:101CEC004FEA3040059005A831F07EF907E5310741
:101CFC003FF52EAF9DF81E1001293FF429AF0021AE
:101D0C0022F0DAFD20B1407901380228FFF420AF2F
:101D1C00B8F84410BDF852002EF06CFA30B180784F
:101D2C0030F0B8F801380728FFF412AFBDF82800DE
:101D3C0030F0CEFD18B104208DF8200008E7BDF876
:101D4C002610BDF82800022243E700BF48230020DC
:101D5C0008600020726F00203C260020605F0300AA
:101D6C00A8200020B0200020AC2000204826002015
:101D7C002DE9F04F87B0C1890446A1F50040362803
:101D8C0000F28D80DFE810F03700E50037019F038B
:101D9C00BB0135027E029F039F039F039F039F039A
:101DAC009F039F039F039F039F039F039F039F0317
:101DBC009F039F039F039F039F039F039F039F0307
:101DCC009F039F039F039F03CC02F5021F039F03F6
:101DDC009F039F039F039F039F039F039F039F03E7
:101DEC009F039F039F039F039F039F039F039F03D7
:101DFC0046039F036E03204627F0E6FC002800F004
:101E0C006283044642F20850C2F200000568002DBD
:101E1C0000F0EF8004F1040804F10C094FF0000A03
:101E2C004FF0600B08E000BF304639461BF082F9DA
:101E3C002D68002D00F0DD80287AC007F8D02E79AF
:101E4C0018202EF014FF0028F2D0C0E900AAC0E937
:101E5C0002AAC0E904AAA0F800B0074620784146BF
:101E6C00387160880822F881781D30F0B9FE207B2B
:101E7C0000287874D8D0207B400031F083FE0028F5
:101E8C007861D1D0787C0028CED079694A46023965
:101E9C0032F8023F013821F8023FF9D1C4E7132987
:101EAC0040F0118301AD4FF0000820462946CDF8D3
:101EBC000C80CDE9018830F065FA42F20850C2F28C
:101ECC0000000768002F00F0FE82B4F8029005F1C4
:101EDC00020B4FF0480A012404E000BF3F68002FBA
:101EEC0000F0F182F87AC007F8D03D7916202EF078
:101EFC00BEFE0028F2D00646C0F80080C0F8048070
:101F0C00A0F81480C0F81080C0F80C8040F8088F3E
:101F1C00A6F800A0BDF804100822F1805946A6F8D6
:101F2C00049030F05DFE9DF80E00C10718BF3474AC
:101F3C00810748BF7474410748BFB474010748BF98
:101F4C00F47440062846314648BF34751BF0F2F84D
:101F5C00C4E7204627F038FC002800F0B482044681
:101F6C0042F20850C2F200000568002D41D004F185
:101F7C00040804F10C094FF0000A4FF0610B05E066
:101F8C00304639461BF0D6F82D6895B3287A800771
:101F9C00FAD52E7918202EF06AFE0028F4D0C0E96C
:101FAC0000AAC0E902AAC0E904AAA0F800B007463A
:101FBC0020784146387160880822F881781D30F00D
:101FCC000FFE207B00287874DAD0207B400031F0A3
:101FDC00D9FD00287861D3D0787C0028D0D07969DD
:101FEC004A46023932F8023F013821F8023FF9D152
:101FFC00C6E720468FE10020ADF81400CDE90300C0
:10200C00CDE9010001A9204623F04CF942F2085019
:10201C00C2F200000668002E00F05582B4F802905F
:10202C004FF06208012703E03668002E00F04B8267
:10203C00307A4007F8D534792C202EF018FE002881
:10204C00F2D02C21054630F0E9FFA5F80080A5F868
:10205C0004909DF804109DF80A00A971BDF80610B3
:10206C00C207298118BF6F74810748BFAF7441073D
:10207C0048BFEF74010748BF2F75400648BF6F7506
:10208C00BDF81000C10718BF2F77810748BF6F77C5
:10209C00410748BFAF77010748BFEF77C10648BF7C
:1020AC0085F82070810648BF85F82170400648BF2E
:1020BC0085F82270BDF80800C1B200F007022A733F
:1020CC00C1F3C002C1F30011A973C0F30221C00A0D
:1020DC00E973BDF80B1028749DF80D006A73E98242
:1020EC009DF814102876BDF80E00BDF812206883F8
:1020FC00A96220462946AA841BF01CF894E7002606
:10210C0001A92046CDE90566CDE90366CDE9016656
:10211C002FF098FF42F20850C2F200000768002F1F
:10212C0000F0C581B4F802804FF0640908E000BFEC
:10213C00204629461AF0FEFF3F68002F00F0B781B9
:10214C00387AC006F8D53C7920202EF090FD002876
:10215C00F2D0C0E90066C0E90266C0E90466A0F8E6
:10216C0000900546C0E90666A0F804809DF80400BE
:10217C00BDF806209DF80F10A8712A81BDF80C003F
:10218C009DF8082028829DF80E002A7300F00F009D
:10219C00A874BDF80A00E974E8819DF8140028764B
:1021AC00480031F0EFFC686160B1E87C50B16969BE
:1021BC00049A0239023A00BF32F8023F013821F882
:1021CC00023FF9D19DF81400400031F0DBFC0028EF
:1021DC00E861ADD0287E0028AAD0E969069A0239B8
:1021EC00023A00BF32F8023F013821F8023FF9D120
:1021FC009EE720462EF0D2F8002800F064810546B8
:10220C0042F20850C2F200000768002F00F08280F2
:10221C00B4F802806C1D4FF0000A4FF0650B06E01D
:10222C00484631461AF086FF3F68002F72D0387A44
:10223C008006F9D597F8049010202EF018FD002890
:10224C00F2D0C0E900AAC0E902AAA0F800B0A0F838
:10225C00048006462878B071688830812879B0727D
:10226C00287931F08FFC0028F060D9D0B07A0028A2
:10227C00D6D00020215CF2681154B17A013088422A
:10228C00F8D3CDE720462EF089F8002800F01B810A
:10229C00054642F20850C2F200000768D7B3B4F802
:1022AC0002806C1D4FF0000A4FF0660B06E000BF79
:1022BC00484631461AF03EFF3F685FB3387A400615
:1022CC00FAD597F8049010202EF0D1FC0028F3D00A
:1022DC00C0E900AAC0E902AAA0F800B0A0F80480E6
:1022EC0006462878B071688830812879B0722879D0
:1022FC0031F048FC0028F060DAD0B07A0028D7D052
:10230C00002000BF215CF2681154B17A0130884280
:10231C00F8D3CDE7284625F0B5FC07B0BDE8F08F23
:10232C0042F20850C2F200000568002D00F0CB808C
:10233C00A069678890F8008000264FF06B0903E0D5
:10234C002D68002D00F0BF80687A4006F8D52C79F6
:10235C0008202EF08CFC0028F2D001460660466066
:10236C00A0F80090878080F8068020461AF0E2FEE4
:10237C00E6E742F20850C2F200000568002D00F0BA
:10238C00A280A069678890F8008000264FF06C0945
:10239C0004E000BF2D68002D00F09580687A80065F
:1023AC00F8D52C7908202EF062FC0028F2D00146DA
:1023BC0006604660A0F80090878080F80680204672
:1023CC001AF0B8FEE6E742F20850C2F200000568C7
:1023DC00002D78D0A069678890F8008000264FF017
:1023EC006D0902E02D68002D6DD0687A0006F9D5D4
:1023FC002C7908202EF03BFC0028F3D00146066017
:10240C004660A0F80090878080F8068020461AF07D
:10241C0091FEE7E742F20850C2F200000568002D79
:10242C0051D0A069678890F8008000264FF072099F
:10243C0003E000BF2D68002D45D0A87AC006F9D561
:10244C002C7908202EF013FC0028F3D001460660EE
:10245C004660A0F80090878080F8068020461AF02D
:10246C0069FEE7E742F20850C2F20000056855B376
:10247C00A069678890F8008000264FF0740901E08D
:10248C002D6805B3A87A4006FAD52C7908202EF0D1
:10249C00EEFB0028F4D0014606604660A0F80090E0
:1024AC00878080F8068020461AF044FEE8E70498FE
:1024BC0018B125F0E7FB00200490069818B125F020
:1024CC00E1FB0020069007B0BDE8F08F2DE9F04F3E
:1024DC009DB046F2AC1AC2F2000ADAF800100446BB
:1024EC0009B18847E8B146F6DC08C2F2000898F852
:1024FC00015046F27C090120C2F2000988F80F0055
:10250C00D9F800006E0398F802B013AA31460423E0
:10251C0030F0EFFF9DF84E00800704D098F80500CE
:10252C0008B9002056E3DAF80010F8208DF85400B2
:10253C000494A9B188470B24002818BF002498B133
:10254C00D9F8000046F006014FF0040C15AA01233F
:10255C00CDF800C030F079FD002848BF012404E01C
:10256C00002401200028EBD10B2445F64500C2F2D3
:10257C00000004709DF84C0005EB450108EB81044C
:10258C0070284FF0F80009951291207628D0DAF8CF
:10259C00001070208DF85400A1B188470B2500283D
:1025AC0018BF002590B1D9F800004FF0040C15AA03
:1025BC0031460123CDF800C030F047FD002848BF5C
:1025CC00012504E0002501200028ECD10B2545F65F
:1025DC004500C2F20000002D057004BF7020A075EC
:1025EC00D9F800004FEA4B3113AA04230A9130F0BA
:1025FC0080FF9DF84C00FE282BD0DAF80010FE204E
:10260C008DF85400A1B188470B25002818BF002570
:10261C0090B1D9F800000A994FF0040C15AA0123C7
:10262C00CDF800C030F011FD002848BF012504E0B2
:10263C00002501200028ECD10B2545F64500C2F2FF
:10264C00000005702DB90BEB4B0008EB8000FE2150
:10265C008175DAF80010FE208DF8540029B18847F6
:10266C000B25002818BF002501E00025012045F6A8
:10267C00450AC2F2000A019470B10A99D9F8000017
:10268C0041F00601042415AA0123009430F0DDFC6E
:10269C00002848BF012500E00B25129A08F116000E
:1026AC000BEB4B0100EB82020696079100EB8103CA
:1026BC00FE21D28898F8016003F8021F00218AF8E5
:1026CC000050A8F812208AF8001098F8022006EBA7
:1026DC00460100EB810140F2D817CD8802EB420194
:1026EC00C1F2000700EB81010892386831F8062F1F
:1026FC0044F2000402918168C4F203042046CDF830
:10270C0014B0039310928847396880464A68204673
:10271C000021904738688168204688470028F9D105
:10272C0008F00300DDF840800B90760300200DF1DB
:10273C00540B1190129605E0FF1A002000283D461C
:10274C0040F0DB80A8B21728C0F0D6809AF80000C1
:10275C00002840F0D580EF1FD9F8000016FA87F159
:10276C005A460723BCB230F0C4FE9DF857009DF8C2
:10277C00581000F03F00800140EA910303F1100073
:10278C00A0424FF0010054D89DF85A20962A50D1FF
:10279C009DF8590000F00302022A47D100068A0175
:1027AC0042EA9060CDF840800C90A7EB030A1C1D08
:1027BC0001F0FC004FF000080F970D938DF85300BB
:1027CC005046CDF838A000BFA0B22746202828BF1D
:1027DC002027D9F8000016FA8AF14E461FFA87F91D
:1027EC005A464B4630F085FE5FFA88F059464A4609
:1027FC00B146129E2FF0C8F8E41B80462004BA4460
:10280C00E2D140460DF1530101222FF0BDF80C9995
:10281C0045F6450AC9B28842C2F2000A4AD10020E4
:10282C00DDE90F781190002049E000BF0121002064
:10283C001191002846D0B8B216284FF0000688BF78
:10284C00012617282BD301263C460F9708E000BF22
:10285C00A0B216284FF0000688BF0126172849D3CE
:10286C00A0B2A4F11607362888BF20271299E41BC2
:10287C00D9F80000BDB211FA84F15A462B4630F05B
:10288C0038FE002DE4D000BF1BFA87F010F8010CC5
:10289C00962803D0013F3804F6D1D9E7274416F027
:1028AC0001004FF0030018BF002001D0129E44E736
:1028BC00129E43E7DDF84080A5F1080701200D9B2F
:1028CC000028B8D11198C0077FF436AFDD1D42F255
:1028DC00000115FA88F0C1F200110A1A0E99D9F804
:1028EC00000016FA81F11C462B4630F002FE2346FE
:1028FC00A84421E70F9FD2E72F469AF8000068B151
:10290C0040F2D810C1F2000000680B99426844F202
:10291C000000C4F20300904700205BE146F2AC1AC1
:10292C00C2F2000ADAF80010444629B188470B2598
:10293C00002818BF002501E00025012046F6DC0622
:10294C00DDE905B8C2F20006A8B10899C4F5005239
:10295C00A4F11003D9F800004903C1F200121031A0
:10296C009BB24FF0040CCDF800C030F06EFB002889
:10297C0048BF012500E00B2545F64503C2F20003D4
:10298C0040F2D8111878C1F20001096828434A684E
:10299C00187044F200000B99C4F20300904702989F
:1029AC006FF0D2411591DAF800100480707B728AB6
:1029BC00B78234828DF85600ADF85420A1B1884707
:1029CC000B24002818BF002490B10899D9F80000F6
:1029DC0049030831042715AA0423009730F035FB6E
:1029EC00002848BF012404E0002401200028ECD179
:1029FC000B2445F645006FF0D241C2F20000159150
:102A0C00DAF800100470B07BB28A8DF85600ADF87D
:102A1C005420A1B188470B24002818BF002490B182
:102A2C000899D9F8000049030C31042715AA04238E
:102A3C00009730F00AFB002848BF012404E0002472
:102A4C0001200028ECD10B240499308A0029C0F510
:102A5C00005008BF1021884245F64500C2F2000024
:102A6C00047018DADAF8001078208DF8540059B395
:102A7C0088470B24002818BF002448B3D9F800005D
:102A8C000A99042715AA0123009730F0DEFA0028D2
:102A9C0048BF01241DE0DAF800107C208DF85400AA
:102AAC00F9B188470B24002818BF0024E8B1D9F8E5
:102ABC0000000A99042715AA0123009730F0C5FAE3
:102ACC00002848BF012411E0002401200028D5D1A2
:102ADC000B2445F64505C2F200052C70BCB97820D4
:102AEC000DE0002401200028E1D10B2445F645051A
:102AFC00C2F200052C7054B986F803B07C200799FB
:102B0C0045F6450506EB8101C2F20005887509986A
:102B1C000CF008F8DAF800102870FC208DF854003E
:102B2C00A1B188470B24002818BF002490B10A9942
:102B3C00D9F8000041F00601042715AA01230097DB
:102B4C0030F083FA002848BF012404E0002401205F
:102B5C000028ECD10B2445F64500C2F20000039985
:102B6C000470FC2008700998DAF80010B07007980F
:102B7C0006EB8000808B86F801B0F0804FF0FE00F1
:102B8C0086F803B08DF8540029B188470B2400282F
:102B9C0018BF002401E00024012045F64505C2F2CF
:102BAC00000560B1D9F80000042715AA414601239D
:102BBC00009730F04AFA002848BF012400E00B24AB
:102BCC002C7014B90199FE208875F1880020707161
:102BDC00C1F5005000B21DB0BDE8F08F2DE9F04FEB
:102BEC0095B0D0F814900D9099F8000000EB4000CF
:102BFC00013031F06BF8002800F0E282834699F83E
:102C0C000000002800F0C08000200BF1010A002712
:102C1C000C904FF0000800BF0D9842F28042D0F8A3
:102C2C0000E0C7EBC7004844C2F200020146D2F8EC
:102C3C0000C0BEF8045031F8014FBCF1000F09D0B0
:102C4C009EF81460624600BF1379B34203D0126839
:102C5C00002AF9D100222AB3167C1EB3526903E074
:102C6C00013E02F10C021DD01388AB42F8D19388BF
:102C7C00A342F5D19468D2E900321194CDE90F3218
:102C8C00C2789DF84200824224D19DF843209307DC
:102C9C0029D45FFA88F0400050FA88F00AEB000261
:102CAC00882307E05FFA88F0400050FA88F00AEBBE
:102CBC00000286230AF80030088808F10108A2F8FF
:102CCC0001000020002863D099F8000001378742EA
:102CDC00A2D35DE05FFA88F0400050FA88F00AEB6E
:102CEC0000028D23E6E792060DD4119AA2B1A0F151
:102CFC004301012936D81188881C82B2914288BFC1
:102D0C004FF0FF3037E05FFA88F0400050FA88F05F
:102D1C000AEB00027E23CDE79EF81420BEF80400D7
:102D2C0009880023BCF1000FADF8483009D000BF72
:102D3C009CF80430934206D0DCF800C0BCF1000FC4
:102D4C00F6D14FF0000CBCF1000F14BFDCF808609A
:102D5C00002626B10022002312AD0095B047BDF825
:102D6C00480008E0A0F14101012902D81078013097
:102D7C0001E02FF048FD0C99ADF83A000144012018
:102D8C000C910028A0D103E000204FF000080C901B
:102D9C005FEA08608BF8008047D00D9901270C681A
:102DAC0091F80480A08894F814A00C909BF8000073
:102DBC008E7A00EB4009484630F088FF002800F07E
:102DCC000282B6469BF800600546A11D27EAD80C86
:102DDC0086B1002303EB43020BEB02077C78013333
:102DEC00AC54BC782A445470FF7897709BF8006000
:102DFC00B342EFD30C9A5046012E05D19BF801300B
:102E0C00002B08BF4FF0010901270023CDE9003C3E
:102E1C00CDE902730423CDE904E9069507970AF07E
:102E2C00D5FB284630F005FACDE10C9880B230F095
:102E3C004DFF002800F0C681864699F80000002856
:102E4C0000F0AF810BF1010042F2804C0990C2F20C
:102E5C00000C4FF0000ACDE90AEE00BFCAEBCA0025
:102E6C0009EB00052A4632F8011FDCF800600C92D1
:102E7C000D9A126893883EB1147D00BF3779A74232
:102E8C0003D03668002EF9D10026002E00F03281D6
:102E9C00347C002C00F02E81766904E0013C06F1B4
:102EAC000C0600F0278137889F42F7D1B7888F42F4
:102EBC00F4D196E81A000FAE1AC60C9E0EEB000366
:102ECC0031882EF800100B98C3F803006CB19DF8F4
:102EDC004200A0F1430101292CD82088851CA9B2FD
:102EEC00884288BF4FF0FF3537E0DCF8003090881F
:102EFC0031883BB1127D00BF1F79974203D01B680C
:102F0C00002BF9D10023002B14BF9E6800264FF034
:102F1C000002ADF83A203EB10B9B01220DF13A07AD
:102F2C000097B047DDF828E09DF84300810708D4EE
:102F3C00882023E0A0F1410101290BD82078451C01
:102F4C000BE00D996D68096880060E7D00F1EA8032
:102F5C00002000E12FF057FC05460B98AAB2214641
:102F6C002FF0CEFE0D980FAA01683346087D06316E
:102F7C00ADF83A501CF088FEDDF828E042F2804CA7
:102F8C00C2F2000C002800F0C6805FFA88F14900FC
:102F9C00099B51FA88F158540C985A18008808F17A
:102FAC000108BAF1000FA2F8010000F0A380002480
:102FBC000D980C94D0F800C042F28040C2F2000090
:102FCC00C4EBC40204689CF81470BCF804303EF8DE
:102FDC0002603CB1204600BF0579BD4203D00068B9
:102FEC000028F9D10020002800F08F80057C002DEE
:102FFC0000F08B80406904E0013D00F10C0000F012
:10300C00848001889942F7D18188B142F4D18668D5
:10301C00D0E90010CDE9130612918EB19DF84E0047
:10302C000EEB0201D1F80370A0F1430101290DD878
:10303C003988881C82B2914288BF4FF0FF301CE067
:10304C009DF84F00810708D40C9C1EE0A0F14101B3
:10305C00012910D8387801300FE00EEB0201D1F8BD
:10306C000360800601D4002026E0ACB12079B84280
:10307C0013D02468F9E72FF0C6FB0C9C82B23046C3
:10308C0039462FF03DFEDDF828E0013454454FF071
:10309C0000007FF48DAF39E00024002C14BFE468ED
:1030AC00002424B10CF1060012A90222A047DDF87D
:1030BC0028E0002C08BF00200C9C0028E5D142F22F
:1030CC008040C2F20000006818B10179B942FAD10F
:1030DC0000E00020002814BF87680027002FD4D000
:1030EC00BDF84800BDF84C1002223346002600966D
:1030FC00B847C8E70020002853D099F800000AF11F
:10310C00010A8245FFF4AAAE4BE0002042F2804C4B
:10311C00C2F2000CEFE7BDF83A000B990144012014
:10312C000B91E8E742F28040C2F20000006818B14F
:10313C000279B242FAD100E00020002814BFC46822
:10314C0000241CB1881D0FA90222A047DDF828E03D
:10315C00002C08BF002042F2804C0028C2F2000C68
:10316C007FF410AFDCF8000028B10179B14203D034
:10317C0000680028F9D10020002814BF86680026BA
:10318C006EB1BDF83C00BDF8401002222B46002762
:10319C000097B04742F2804CDDF828E0F0E6C12001
:1031AC00F0E65FEA08608BF8008004BF0120ABF802
:1031BC0000007046744630F03CF8002C7FF4EDAD06
:1031CC00002703E00027584630F033F8384615B096
:1031DC00BDE8F08F10B501780446FC2900F204819B
:1031EC00A078DFE811F003010101080117011C01AF
:1031FC0001010101210126012B0101010101010144
:10320C0001010101010133013D01420101014701AD
:10321C004C015101010156015B01010166016B0179
:10322C0001017001750178017D018201010101012B
:10323C00010101010101870101018C01910196013C
:10324C000101010101010101010101010101010162
:10325C00010101010101010101019B01A001A50175
:10326C000101010101010101AA010101AF010101EB
:10327C00B4010101010101010101B901BE01C30148
:10328C00C80101010101010101010101010101015B
:10329C000101010101010101010101010101010112
:1032AC000101010101010101010101010101010102
:1032BC0001010101010101010101010101010101F2
:1032CC0001010101010101010101010101010101E2
:1032DC0001010101010101010101010101010101D2
:1032EC0001010101010101010101010101010101C2
:1032FC0001010101010101010101010101010101B2
:10330C0001010101010101010101010101010101A1
:10331C000101010101010101010101010101010191
:10332C00010101010101CD01D201FD00FD00D70118
:10333C00DC01E101FD00E601F101F601FB010002F7
:10334C0005020A0216021B0226022E0236023C025B
:10335C0044024A024F0254025E0269026E02730278
:10336C000101010101017A028102010101018A02BC
:10337C000101010101010101010101010101010131
:10338C0092029802010101010101010101010101F7
:10339C00010101019E02A4020101010101010101CF
:1033AC000101010101010101AE0201010101B8029B
:1033BC000101BD020101010101010101C50201016F
:1033CC0001010101010101010101010101010101E1
:1033DC000101010101010101CC02D102FD00010139
:1033EC006068002800F0A9811220A7E120462DF08A
:1033FC004FFB012010BD6068002800F09E81002169
:10340C00617040F20111C0F202610160032101718F
:10341C00012010BD204603F00DFF012010BD2046F9
:10342C0005F000FF012010BD20462DF0A9FE012063
:10343C0010BD20461BF0A9FA012010BD60680028C1
:10344C0000F07B81007830F08FFABBE060680028D8
:10345C0000F073810088002107F0B0F9012010BD45
:10346C00214618F0BBFB012010BD204628F06AFE57
:10347C00012010BD214606F001FF012010BD2046A1
:10348C002CF070FA012010BD20462FF0CBF8012053
:10349C0010BD20462EF0BCFA012010BD606800283B
:1034AC0000F04B810078002161702BF0B7FC0120FB
:1034BC0010BD20462BF014FF012010BD204628F033
:1034CC000BFA012010BD204628F068FB012010BD2E
:1034DC002FF01CFD32E121460BF0DEFD012010BD6A
:1034EC00204623F065FB012010BD204611F058F951
:1034FC00012010BD20462DF00DFB012010BD2046F3
:10350C002DF01EFB012010BD20462DF0D7FA012016
:10351C0010BD204629F0EAFF012010BD204629F0FD
:10352C00E9FA012010BD20461EF011FE012010BD4D
:10353C00204624F045F8012010BD204624F0B1FFB0
:10354C00012010BD20462DF0CFFA012010BD2046E1
:10355C0028F01EFE012010BD20462CF0CEFA0120D2
:10356C0010BD20462EF062F9012010BD20462FF030
:10357C0067F8012010BD20462EF0BFFD012010BDC4
:10358C00204627F03AFA012010BD204629F0F0FB26
:10359C00012010BD20461AF03FFB012010BD204633
:1035AC0015F060FF012010BD204621F083F80120AA
:1035BC0010BD46F67270C2F2000000784FF48071B4
:1035CC0023F0DAFB0020B9E0204629F08BFB012028
:1035DC0010BD20461FF0B9FD012010BD204623F080
:1035EC00B8FF012010BD204626F0FEFF012010BDC3
:1035FC0020462AF0B3FF012010BD6168002900F0BD
:10360C009C80088889780022627025F071F901206D
:10361C0010BD20462DF0D8FE012010BD606800289A
:10362C0000F08B8000780021617007F0DDFD012037
:10363C0010BD6068002800F08080007826F022F928
:10364C007CE0A068002878D00020607030F008F989
:10365C0059E00020607028F0A2FE012010BDA06887
:10366C0000286AD00020607030F090F94BE0002008
:10367C00607023F064FA012010BD204627F066F933
:10368C00012010BD20462AF061FB012010BDA0686E
:10369C00002852D000216170411C27F0C1FE01208E
:1036AC0010BD6068002848D00021617022F0CEFF68
:1036BC00A1680880012010BD20462DF02DFB0120B3
:1036CC0010BD20462EF0A0FF012010BD6068A0B3F5
:1036DC0000F112011BF0CAFA30E0616869B3087896
:1036EC00496827F0B1F829E0606830B30078002110
:1036FC00617022F065FD012010BDA068E8B10020CA
:10370C0060702DF09DFCA16822E0002060701EF01E
:10371C0007F8012010BD606878B1006829F0EEF858
:10372C000CE0606848B1006801F004FA06E06068DB
:10373C0018B1006808F0D8FF00E00220607001208A
:10374C0010BD00206070E07842F2F351C2F200012B
:10375C000870012010BD204629F0E7FA012010BDA9
:10376C006168C1B10888897A2AF0D0F8012010BDAF
:10377C006068007868B12AF089FD012010BD2046F0
:10378C002DF0DFFA012010BD20462CF0A9FE0120FF
:10379C0010BD29F074FF012010BD70472DE9F04FCA
:1037AC0089B02BF037FCDFF810158122DFF8148577
:1037BC00DFF814A5DFF82045DFF814E50A70DFF810
:1037CC00FC140860DFF8F804FF2101700020DFF81A
:1037DC000415A8F800008AF80000DFF8F004096866
:1037EC00007891F808B04FF6FE718EF8000059443D
:1037FC008AB2A168D1F80031DB899A4200F2678164
:10380C000422DFF8DC54A8F80020DFF8D02412687A
:10381C009668330ECEF80C60C6F301592B706FF01E
:10382C00FF0303EA1627B3B2D1F8B86047EA1327AF
:10383C00AEF8047036781EB9B9F1020F00F047816A
:10384C00B9F1030F00F043811B0A03F0070316B113
:10385C00002B00F03C81DFF88CC4042B9CF800C0DA
:10386C0008BFBCF1000F00F032813EB1DFF8786484
:10387C003678862E02D1022B40F02981BB0416D457
:10388C00BBB203F00703022B08BFBCF1000F20D022
:10389C00DFF854140978862909D1002076462BF0DC
:1038AC00F1FBDFF84004B64690F800C030780028F1
:1038BC004ED0BCF1000F4BD1012800F00881032839
:1038CC003FD0022844D1BEF80400400740F0FF80EE
:1038DC003EE0D1F8D40090F88300022800F08080FC
:1038EC0027460520147BF246A946A8F800002FF0C5
:1038FC0027FF0546DFF8F003007886286DD1B868FD
:10390C00016C096811B9D0F84C05804760B20021F0
:10391C00002630F096FAB9680A6C12685077086C79
:10392C0000688677086C0068C477284630F0EAF99E
:10393C00BAF8041099F8000001F0100127F000FB10
:10394C004EE0BEF8040000F00700032840F0BF80F2
:10395C00BEF80400010700F1BA80810402D481058D
:10396C0000F1B5809EF80E20C2F38107012F00F004
:10397C00AE809609012E00F0AA80B9F1010F11D882
:10398C0040F0020101F0070103290BD117B93F2ABE
:10399C0040F29D8037B9A168D1F8AC1009780029A4
:1039AC0000F095804FF6FB71B9F1020F0BEB010C97
:1039BC0019D1CF4BD95D9B5D03EB01090023402A44
:1039CC00B7FA87F238BF012352091A40430616D4BE
:1039DC00002A08BF09F1020915E0284630F092F9D7
:1039EC002EF04AFE75E0C14B402AD95D9B5D03EB7E
:1039FC00010908D3420648BFA9F1020903E0002AD5
:103A0C0018BF4FF00209C0F300205FFA89F11FFACA
:103A1C008CF30A1A8EF801009A4258DC6044039128
:103A2C00B346401AA168AEF806007430D1F85012B3
:103A3C0080B28847A6490028886048D07421CDE917
:103A4C0001972FF0EBFAA24F0020B870A548007830
:103A5C0020B9387900F020008AF8000078789AF8BC
:103A6C000010DFF878C24FF000092E4600299A4961
:103A7C003DD000284FF000003AD1B88800F0070084
:103A8C00032807D0012832D18868D0F8D40090F8E8
:103A9C00820060B3C8684069007818B12FF0C8F98B
:103AAC00FE280DD08C488068D0F84C02804738B97D
:103ABC0089488068D0F844028047002800F0F780DD
:103ACC00834F0120B870DFF814C22E4610E02FF09F
:103ADC001FF82FF035FE814900240A6813681C7109
:103AEC0012680A6030F00EF909B0BDE8F08F0020C2
:103AFC00BC6804F1740184F830B06160A165797818
:103B0C00BB88FA880029A381029B228184F83A3071
:103B1C00337808BF994697F80EB084F84990019D08
:103B2C00A4F85C20FF22B8F80030A273CBF3011983
:103B3C005E1A797BA8F8006001F0780160F38201CD
:103B4C0001EB09002074280600F0AE80DCF80000C0
:103B5C0004AF039A10FA86F000F10801384630F0F1
:103B6C009BF956FA85F0CBF38105A8F80000207C70
:103B7C0000F04008CDB3B9F1020F06D1B8F1000F37
:103B8C0003D0B4F8440004AF06E0BDF810000237CF
:103B9C00A4F84400A4F84200564EF189884203D0A0
:103BAC004FF6FF7188425ED1032D11D104F1320022
:103BBC0039462FF092FF464CF11CA06832302BF0A6
:103BCC0099FA454900284ED094F80EB008370EE00B
:103BDC0037F8020BB1898842608606D04FF6FF7128
:103BEC003B4C88423C493ED101E03B49384CBBF14F
:103BFC00400F20D3B9F1020F06D16DB9B8F1000F07
:103C0C000AD13348806803E0A068017C490603D4DC
:103C1C0039880237A0F84210BBF1C00F06D32C4CE8
:103C2C003946A06828302FF058FF03E0284C38881C
:103C3C00A168088528498968A088D1F8AC20127839
:103C4C00B2B1B9F1020F13D200F00700012802D073
:103C5C0003282FD11E4C6DB9264AA368D289B3F81C
:103C6C004230934206D010F0C0FB23F0D5F930E778
:103C7C0000F00700032806D0012815D1D1F8D40094
:103C8C0090F8820080B1A068D1F848128847104A99
:103C9C0050B90020D17B9070907BC1F3011100F0E2
:103CAC0078000844916808740EF02AFF11E7084F59
:103CBC00B87808E7064CDDE78A6F0020106F00200B
:103CCC008F6F0020606F00208D6F00208C6F0020A4
:103CDC0050220020446F00200C010020486E002070
:103CEC009C6F00209B6F0020926F0020A466030045
:103CFC00A0660300686D00202DE9F04F8BB042F2F6
:103D0C00D556C2F200060546307845F6450BC2F290
:103D1C00000B03288BF8000040F05882002003AC05
:103D2C0030708BF80000204630F031F8204600212E
:103D3C0028F07FFB45F69C2146F6DC08C2F2000118
:103D4C00C2F20008086040462E212FF067F94FF0B0
:103D5C00FF30A8F81400C8F81000C8F80C002CF0BC
:103D6C005BFC0020294628F061FC46F27C0146F6FB
:103D7C00B455C2F20001C2F20005086029462FF0CA
:103D8C00D3FFD5E9011246F67173B1FBF2F0C2F222
:103D9C000003C0B2022828BF0220B2F5005F88F8E9
:103DAC000000187040F0C18042038A4200F2BD80CE
:103DBC0046F27C01C2F200010968002900F0B580CE
:103DCC00FF21C2F20001C8F804104FF6FF71002861
:103DDC00A8F8021000F0B28044F2000540F2D81AA4
:103DEC00C4F203054FF00009C1F2000A4FF0885BE2
:103DFC000CE000BF88F8029046F67170C2F2000029
:103E0C00007809F10109814580F0948046F27C002C
:103E1C00C2F2000000684FEA4936314604AA042376
:103E2C002FF067FB049809EB490108EB8104274646
:103E3C0000F47C01B1F5402F27F8160F04D000F0E8
:103E4C007F41B1F1164F58D1C0F3014161766FF04B
:103E5C00FD0151FA80F102294FF010014CD3C0B290
:103E6C007E2849D0DAF80000816828468847DAF8BD
:103E7C00001002904A68284600219047DAF80000AA
:103E8C008168284688470028F8D146F27C00C2F2A7
:103E9C000000006831464FF088524FF400534FF445
:103EAC0000562FF026FB6FF0030300BF13FA86F6C3
:103EBC00B0B250F80B104A1C01D10328F6D84FF0C1
:103ECC0001080122CBB2FF2BD3B218BF9046090ACE
:103EDC00042B02F10102F5D340F80B10DAF80000C4
:103EEC004268029800F003012846904756FA88F180
:103EFC0046F6DC08C2F20008A18338787B2807DC80
:103F0C0070280FD0782808BF88F8039074E700BF9A
:103F1C00FE283FF46FAF7C287FF46EAF88F80390D7
:103F2C006AE700BF88F8049066E7012030700BB098
:103F3C00BDE8F08F45F6450BC2F2000B98F8031064
:103F4C00FF2901D001251EE098F80410FF2903D0A9
:103F5C0088F80310022516E098F80210FF2911D0FA
:103F6C000131B1FBF0F202FB101000EB400108EB49
:103F7C008101898B19B188F80300022503E0FF2029
:103F8C0088F80200002598F80300FF2834D100249B
:103F9C00002088F803400AF0C5FD9BF80010084388
:103FAC008BF8000046F2AC10C2F2000001687E20D3
:103FBC008DF81000A9B188470B24002818BF0024E5
:103FCC0090B146F27C00C2F200000068042704AAFB
:103FDC000021012300972FF038F8002848BF012456
:103FEC0003E001200028ECD10B24002C8BF80040BE
:103FFC0004BF7E2088F8160098F80200FF2843D1F1
:10400C0046F6717198F80300C2F20001097801308C
:10401C00B0FBF1F202FB110088F802000AF082FDFD
:10402C009BF8001098F8024008438BF8000046F209
:10403C00AC10C2F200000168FE208DF81000A9B18E
:10404C0088470B26002818BF002698B146F27C0042
:10405C00C2F2000000686103042704AA0123009740
:10406C002EF0F3FF002848BF012604E000260120B3
:10407C000028EBD10B268BF800602EB904EB440022
:10408C0008EB8000FE21817598F80300022D00EBEF
:10409C00400108EB8101898B88F8010046F680709D
:1040AC00C2F20000A8F80610057000F08680012D01
:1040BC0040F08C8046F6DC080DF1250A0DF1100954
:1040CC000026C2F2000805E0012688F805600022EF
:1040DC00002A76D0B8F806001828F8D398F80340D0
:1040EC00C71F46F27C00C2F200000068610311FA9F
:1040FC0087F1524607232FF0FCF99DF825009DF817
:10410C0026109DF82720ADF81C709DF828308708E4
:10411C0000F0030041EA002190008DF8204040EAB5
:10412C00931203F03F009DF829309DF82A4080013E
:10413C00ADF8161040EA930025069B01090343EAEB
:10414C00956341EA07618DF819309DF82B301144C5
:10415C00049101218DF81870ADF81420ADF81E00F3
:10416C0004F003058DF81A30962B08BF042141EAA0
:10417C00050249078DF81B20A6D5B8F8061098F84B
:10418C000370081A073881B238464A4603230025C3
:10419C00009508F067F898F80330FA1A18BF012256
:1041AC00002895D1BDF81C10002991D09F428FD1C9
:1041BC009DF8200014F05CFF89E7012088F80500C9
:1041CC0001E0F00702D00020FEF780F99BF8000018
:1041DC000BB0BDE8F08F704770B582B0013806287F
:1041EC0000F26B810C46DFE810F007003300600032
:1041FC009100C400E300FC0042F23460C2F2000003
:10420C0000780138012800F25881002C00F0C5819B
:10421C0000200321002429F0D7FA46F6797646F6D9
:10422C00D465C2F20006C2F2000504213078297070
:10423C00042132222FF0F7FB082000210DF05EFF45
:10424C0030784FF480516C7022F05CFB02B070BD82
:10425C00002000252FF018F942F22360C2F2000072
:10426C000121017004208DF805003CB142F2AC1024
:10427C00C2F20000458107202CF092FE46F67970C0
:10428C0046F6D461C2F20000C2F2000100780D7053
:10429C00042132222FF0C7FB42F2AC10C2F2000014
:1042AC00C17A01F0FE01C17207E142F23460C2F240
:1042BC00000000780138012800F2FF8046F6797082
:1042CC00C2F200000078042132222FF0ACFB002C4B
:1042DC0000F0908142F2F044C2F20004216846F6EC
:1042EC00D460C2F200000122027041B977E000BF35
:1042FC008969216023F0C6FC216800296FD008462B
:10430C008842F5D080690028FAD1F5E701208DF8B4
:10431C000500B4B142F2AC10C2F20000002181726F
:10432C0046F20800C2F20000808C42F2CC52C2F27B
:10433C0000021080832002212AF037FA07202CF08B
:10434C002FFE46F6797046F6D461C2F20000C2F236
:10435C000001002200780A70042132222FF063FB46
:10436C0042F2AC10C2F20000C17A01F0FD01C17240
:10437C00A3E00220002C8DF805004FD042F2AC10C7
:10438C00C2F200000021817246F20800C2F2000065
:10439C00808C42F2CC52C2F20002108083200221A7
:1043AC002AF003FA0020032129F00EFA072064E01A
:1043BC0042F2AC14C2F20004A07A03218DF805106D
:1043CC0028B942F2E450C2F200000121017042F21D
:1043DC00E550C2F200000078002800F0968002B090
:1043EC0070BD002C42F2AC144FF00005C2F2000478
:1043FC008DF805505BD018F05FF90D20A07246F6D1
:10440C00797046F6D461C2F20000C2F20001007865
:10441C000D700421C8222FF006FB4AE042F23460F2
:10442C00C2F20000007842F2AC14C2F2000408217F
:10443C000128A17223D8A07B08BB00250DF1020135
:10444C0052208DF8025028F011FAA07B28B942F2C4
:10445C00E750C2F20000007840B904F80E5F552016
:10446C000121224604F8035C2AF09FF9FF20032166
:10447C0029F0AAF92BF096FC00202CF091FD46F6C1
:10448C00797046F6D461C2F20000C2F2000100223B
:10449C0000780A70042132222FF0C5FA42F2AC10D7
:1044AC00C2F20000C17A01F0FB01C17205E00220EA
:1044BC00A072E07A00F0EF00E07242F26450C2F2B7
:1044CC000000006800283FF48AAF42F2AC10C2F240
:1044DC000000807A46F67971C2F200010C788DF8F2
:1044EC00040005202CF0C3FB00283FF478AF0546F0
:1044FC00023001A903222EF073FB0A2028802046EB
:10450C00294618F017FE02B070BD42F21850C2F2E4
:10451C00000000682EF0B4FA00287FF460AF46F675
:10452C007975C2F2000528784FF4804126F0B8FB6B
:10453C0000287FF454AF42F21450C2F2000000265F
:10454C00066042F21C50C2F20000066042F21850A3
:10455C00C2F200002BF068FF28784FF4804122F063
:10456C00D1F942F2E450C2F200000178012904D1E1
:10457C00A17A0B2904BF0021A17246F6D461C2F2C4
:10458C0000010A780670062A7ED1002228780A706B
:10459C00042132222FF047FA7BE046F67975012090
:1045AC0042F2AC14C2F200058DF80500C2F2000410
:1045BC0007212878A1724FF4805122F0A3F9A07B37
:1045CC0028B942F2E750C2F20000007848B9002046
:1045DC00224602F80E0F02F8030C552001212AF096
:1045EC00E4F800212878E172022141F288322FF0A0
:1045FC001AFA62E742F2AC14C2F200040220A07272
:10460C0001208DF8050046F6D4600025C2F20000AA
:10461C000570E07A0DF1030100F0FD00E07252200C
:10462C008DF8035028F022F9A07B28B942F2E7500C
:10463C00C2F20000007840B904F80E5F5520012149
:10464C00224604F8035C2AF0B0F8FF20032129F07D
:10465C00BBF82BF0A7FB00202CF0A2FC42F2F0449C
:10466C00C2F2000404E000BF8969216023F00AFB58
:10467C00216800293FF421AF084600BF8842F3D0DF
:10468C0080690028FAD1F3E7C878062804BF002017
:10469C00C870E07A00F0F7000EE770472DE9F84398
:1046AC0005460C46480414D4A00025D4A0075FD4BA
:1046BC00600500F18180200500F10881200700F1E0
:1046CC003D81600040F1F88024F018F824F080441B
:1046DC00F2E02FF035F8DFF824140F6D3FB1D7E975
:1046EC000A1202F0E04201F00A0189184BD02FF0B7
:1046FC0009FB24F48044DFE0BB48DFF80474016854
:10470C0041F080010160B878012804D104202AF01E
:10471C00D3FE0020B8702FF013F80646B348406D56
:10472C00016804208847DFF8E0130A68904219D129
:10473C002A7EBAB1FA68AAB1DFF8C003806C0028EF
:10474C0000F09780C16840F603020988914206D0B8
:10475C00C06840F604010088884240F08A8005F168
:10476C00140088E040F6C4120860C5E9042284E015
:10477C000FF0CCF9DFF88403006C002840F09D802A
:10478C0024F0020498E0D7E90A65D7E90A12AA4393
:10479C00B143C7E90A122FF0B5FAB8680028A8D0BF
:1047AC0056EA0500A5D0D7F808C03869B7F930101B
:1047BC0032462B46E0479CE72EF0C2FF05462CF014
:1047CC0027FF002800F0B780CC48876B002F00F043
:1047DC00B280DFF82C830420CC49002288F8180022
:1047EC00C6482EF0F3FA2FF0A8FAC9482FF084FA35
:1047FC00C4480068006B8047C8F8100001250420ED
:10480C0088F802502BF02EFB386990F82810C8F865
:10481C000400490703D5436A04210022984701206C
:10482C0025F0FEFCD8F8040045761CF081F8D8F889
:10483C00040081680B461A465B684BB11E88A6F6CD
:10484C000306072EF7D805FA06F616F0830FF2D0FA
:10485C00537B03F0F003013353730023FD68536063
:10486C002D88A5F60305012D00F28A80C8F81030BA
:10487C009FE005F1100028F07FFC30462FF042FA43
:10488C002BF008FB78B12E6A28466FF48071002259
:10489C004FF00073B0479948806B10B123F02EFF96
:1048AC0001E044F00204EE692846002100224FF09A
:1048BC008063B04724F0005434B198482146283026
:1048CC00BDE8F8432DF050BDBDE8F8838C4EB078B0
:1048DC00012804D104202AF0EFFD0020B0702BF049
:1048EC00D9FA38B170686FF4807100224FF0007300
:1048FC00056AA847306950B182480068006B804750
:10490C0032697168801A000BC860002030617B4DE1
:10491C008149002228462EF059FA02203076286C64
:10492C0020B17E48022128302DF01EFD23F0E6FE3A
:10493C0024F40064C0E72FF000FA41E02EF000FFF1
:10494C0005462CF065FEA0B1DFF8B48198F80000A4
:10495C0000070ED498F9000000280AD468461CF011
:10496C000FFC08B1009820B1DFF8B49199F8610000
:10497C0048B32FF0E2F923F0C1FE24F008049BE7C2
:10498C00034633F8385FA5B190F8445090F8456071
:10499C0005F0F00580F8445006F0F005013580F87C
:1049AC00455000255360C5634587507B00F0F000EF
:1049BC00507358480022C261016001202DF08AF921
:1049CC0024F4806478E700260127602E10D009EBD0
:1049DC000600817A31B18772407A07FA00F0C0B2D2
:1049EC002AF084FD2036F0E7CC2108408C01001021
:1049FC00032088F8180046482FF07EF92FF09DF917
:104A0C00444F3E4D0022786900207861F968F860C7
:104A1C00284644492EF0DAF93A480068006B804782
:104A2C00D8F80C10D8F82020411A02EB1130B0EB5A
:104A3C00113F38BF4FF0FF3098F82410C8F8200011
:104A4C0021B1D8F80810B0EBC12F20D92DF052F9B4
:104A5C00B8B140F60900414621F83C0F00204880CF
:104A6C004A7B02F0F00201324A730A7B02F0F00238
:104A7C000A734860F8613960B8F83E0010F4406F72
:104A8C00FAD00020C8F82000012088F8240027F074
:104A9C00A9FD254800210160022000212DF01AF902
:104AAC0002202AF009FD10201AF004FB98F80100EE
:104ABC0020B9D8F8040050302FF070F81B488078DB
:104ACC0010B90D201AF0F6FA98F8250028B100203C
:104ADC0088F8250005202AF0EFFC002088F8180043
:104AEC001348C8F81C000220B5F85610B5F854202D
:104AFC00914208BF072022F03FFE3CE7201E002019
:104B0C00901C00208C01001048240020F915030093
:104B1C008C6500200010044079920100601D00207B
:104B2C00806000206D870200000004600C660300AA
:104B3C00418601002DE9F04F8DB042F28841C2F25E
:104B4C0000010646807E09684A681378834204D0C7
:104B5C0009680A68002AF7D10022002A00F01781A0
:104B6C00F4692078002800F01281800001302FF0C9
:104B7C0009F8002800F01081054646F67970C2F25B
:104B8C00000000788021089421F0BCFE56202CF007
:104B9C002EFF002800F002814BF62F214843040D14
:104BAC0046F6D86846F67B772006C2F20008C2F2B9
:104BBC00000710D046F67C71C2F20001E0B20C7016
:104BCC00162148432EF0DEFF00210028C8F8000013
:104BDC00397000F0E380E0B21621D8F8003000FB09
:104BEC0001F25620002129F091F83C70089C0796A0
:104BFC0020780495002800F0D680681C06900020D0
:104C0C004FF0000A05900020099009E0207846F644
:104C1C00D8680AF1010AC2F20008824580F0C78008
:104C2C00CAEBCA0004EB400B5F46D8F8005037F8CB
:104C3C00022FB07EB189DDB146F67B73C2F2000360
:104C4C001B78ABB1AC1C002505E000BF0135AB42B5
:104C5C0004F1160410D014F8026C8642F6D12688A2
:104C6C008E42F3D166889642F0D15FFA85F805E062
:104C7C004FF0FF0804E000BF4FF0FF08DDE90764C8
:104C8C000AAB7D1E23F0DAFA4FF08709B8F1FF0F5B
:104C9C004FF0000118BF002810D10029B6D1099B94
:104CAC00069AD8B202EB800102F8209028783A8854
:104CBC00013348704A800993A8E700BF287818B1DF
:104CCC004FF000090121E8E75C4614F8040F9DF849
:104CDC002E10884207D19DF82F10490707D44FF0AA
:104CEC008C09002151E04FF08D0900214DE0BBF8FB
:104CFC0005104FF6FF72914202D1BBF8072042B368
:104D0C0046F6D862C2F200021268162318FB032280
:104D1C00BBF80730D18013812DF0ECF84FF000096F
:104D2C0080B346F6D861C2F200010868162218FB5F
:104D3C000200C0F80E90086818FB02012078DBF81E
:104D4C000B8001F10E042DF05EFD0246204641461B
:104D5C0016E046F6D862C2F200021068162318FB61
:104D6C000300D0F80A104FF00009C0F80610C0F884
:104D7C000E901068042218FB030101F10E00123191
:104D8C002DF02EFF012001210590089C85E70224BF
:104D9C0020460DB0BDE8F08F1024F9E7284622F02C
:104DAC0071FF1024F4E7002009900020059005986D
:104DBC00012840F0B68046F67B75C2F200052878D3
:104DCC001624D8F8002000FB04F1562024F0E4FF50
:104DDC0038B92878D8F8002000FB04F1562029F0C7
:104DEC00E4FC46F67970C2F200000078802121F0D4
:104DFC0089FD46F67D79C2F2000999F80040A000C1
:104E0C002EF0C0FE002800F08C8046F2E8078246A7
:104E1C00C2F2000754B1A7F11400AAF10401224612
:104E2C0050F8143F013A41F8043FF9D199F8006069
:104E3C000894B6B34FF0000B4FF000081EE000BF13
:104E4C0099F800000138C1B2890051FA80F107EBE2
:104E5C0081025368D5687B601389146957F8211057
:104E6C003B81FD603C613960C2F810B082F80CB037
:104E7C0089F8000008F10108B04512D299F8000039
:104E8C000028F7D038690028DAD0D0E90051396110
:104E9C0022F0F8FE387B01383873284622F0F2FEF7
:104EAC00F0E704F02FFBDDF820E0079E46F6D8680B
:104EBC00BEF1000FC2F2000830D099F800000021BA
:104ECC0007F1010C09E000BF1AF8213002EB820255
:104EDC0007F822300131714520D0D8B10AEB81029C
:104EEC00537855880026624605E000BF0136B04273
:104EFC0002F1140208D014789C42F7D1B2F80140A8
:104F0C00AC42F3D1F2B200E0FF22079EFF2AE1D0BF
:104F1C00DAE700BFFF22FF2ADCD0D5E7504622F0AB
:104F2C00B1FE0999049D0806297004BF0120288050
:104F3C00B37AB07EB28906F10E01002401270293E8
:104F4C002B46CDE9007703941DF09EFB284622F0FA
:104F5C0099FED8F8000046F6797546F67B76C2F2D3
:104F6C000005C2F2000620B122F08CFE3470C8F8A5
:104F7C0000402878802125F093FE00284FF0000493
:104F8C007FF406AF2878802121F0BCFC46F65E70D9
:104F9C00C2F2000046F67E710480C2F20001FF22CC
:104FAC0028780A70802100222EF03DFDF0E6704733
:104FBC002DE9F04F8DB0D0F81480834698F802C0DC
:104FCC00BCF1000F46D0DBF800009BF80470017DAB
:104FDC00838842F28040C2F20000B8F80020D0F87A
:104FEC0000E0C7F3C0054FF0000A00BFBEF1000F90
:104FFC0006D0704607798F4203D000680028F9D19B
:10500C000020E8B1077CDFB14069043004E000BF48
:10501C00013F00F10C0013D030F8046C9E42F7D124
:10502C00068894B2A642F3D3C678B5EBD61F02D04D
:10503C0016F04004ECD00288002018B10CE000BF40
:10504C00012048B90AF1010AE24502F10102CDD36F
:10505C00E24601E04FF0000A9BF80B00152800F027
:10506C00A0800C2840F0A9815FFA8AF0400050FA29
:10507C008AF4A01C2EF02AFE002800F09E81BAF1C2
:10508C00000F0B9400F02D81DBF80010CDF830B040
:10509C000B7DB1F8049042F28041C2F20001B8F8E5
:1050AC0000C0D1F800B000F102080025089000BF44
:1050BC000C99BBF1000F0F7906D05A461179994221
:1050CC0003D01268002AF9D100220AB3147CFCB177
:1050DC005169C7F3C0020F1D04E000BF013C07F18A
:1050EC000C0715D037F8041C4945F7D139881FFA3D
:1050FC008CF6B142F2D3FE78B2EBD61F02D016F08A
:10510C004006EBD0B87800228E468C4601E000BFFA
:10511C0001225AB905EB4501013508EB0102554551
:10512C000CF1010C28F801E09070C1D10C990F79A9
:10513C00BBF1000F09D000BF9BF80410994206D0B8
:10514C00DBF800B0BBF1000FF6D14FF0000BBBF158
:10515C00000F00F0C8809BF81030002B00F0C380CB
:10516C00DBF81410DDF830B0C7F3C0020F1D1FFAC6
:10517C008CF1002505E000BF013B07F10C0700F0A6
:10518C00B48037F8040C4845F6D138888842F3D3FC
:10519C00F878B2EBD01F00F0A98010F04000EBD0F3
:1051AC00A4E05FFA8AF0800002302EF08FFD002818
:1051BC0000F003810646BAF1000F4FF0010400F035
:1051CC00DE80DBF80000B8F80080077DB0F80490B2
:1051DC0042F28040C2F20000D0F800E0CDF830B0CE
:1051EC0006F1020B002508960C98BEF1000F90F802
:1051FC0004C007D0714600BF0879B84203D00968D3
:10520C000029F9D1002121B30C7C14B3486909930E
:10521C00CCF3C001031D03E0013C03F10C0317D0D8
:10522C0033F8040C4845F7D11A881FFA88F08242EB
:10523C00F2D3D878B1EBD01F02D010F04006EBD0EF
:10524C009B7800240A9010460B9290461CB111E0FA
:10525C00099B012474B90B990BEB85002BF82510D5
:10526C000A99013501F00701554508F101088370D1
:10527C00C170B9D1DDF830B09BF80450BEF1000F0D
:10528C0009D000BF9EF80400B84206D0DEF800E05A
:10529C00BEF1000FF6D14FF0000EBEF1000F70D032
:1052AC009EF81030002B6CD0DEF81400C5F3C00152
:1052BC00071D1FFA88F20124002503E0013B07F1CA
:1052CC000C0761D037F8040C4845F7D13888904268
:1052DC00F4D3F878B1EBD01F57D010F04000EDD0DC
:1052EC0053E0012503E0DDF830B001250898057086
:1052FC0080F801A006460B98DBF8007000F101085D
:10530C003D7DBC889BF804909BF80AA040462EF08B
:10531C00DDFC00284ED083463078AE468BF800007A
:10532C007078224600284FF0010007F1060120EAB0
:10533C00D90C11D0B41CABF10203002707EB4705C5
:10534C00605D254403F8030F687801375870A8781E
:10535C00987070788742F1D301270020CDE9000CBA
:10536C00CDE9027070460D23CDE904A8CDF818B034
:10537C00079708F02BF958462DF05BFF1AE0012532
:10538C0004E00125012400E00125089E357086F813
:10539C0001A0DBF800209BF80430107D911D928851
:1053AC009BF80A7024EAD303CDE900343346029704
:1053BC001DF0DAFA30462DF03CFF01200DB0BDE8AF
:1053CC00F08F2DE9F04FB3B041F6403542F278360C
:1053DC00C2F20005C2F2000604462846314620F00F
:1053EC0059F842F26030C2F20000B56021F09BFF28
:1053FC0042F29815C2F2000528462DF06DFF41F2DD
:10540C008830686048F6A950C0F20200286100207C
:10541C00294616F02BFA46F65C61C2F200010860D0
:10542C0042F25C40C2F200000460204601212DF0E3
:10543C0072FC46F2E060C0F20300006841F2C31156
:10544C0046F29803C9F20001C0F20303002221F0D6
:10545C00E8FB46F25C10C0F2030008302090C52037
:10546C0042F2A8311AAC20AD8DF86800C2F20001EE
:10547C002CA8224623462495009519F0CFFE24989B
:10548C00854203D028B10168496901E001680969C6
:10549C00884746F23810C0F2030000F108054FF2BD
:1054AC005F60C0F201001B90922042F2A83114AE52
:1054BC008DF85000C2F200012CA8324633461A95E2
:1054CC001E94009419F0AAFE1E98844203D028B1B1
:1054DC000168496901E001680969884748F6674035
:1054EC00C0F2000014951590C62042F2A8310EAD02
:1054FC008DF83800C2F200012CA82A462B461896CB
:10550C00009619F08BFE1898864203D028B10168DA
:10551C00496901E001680969884741F6C874C2F21B
:10552C00000420462BF064FD2EF02AFA224652F895
:10553C00241B28F051FE46F62569C2F2000989F8B1
:10554C00000046F28010C0F2030008300E90CA2012
:10555C0042F2A83108AE8DF82000C2F200012CA84E
:10556C00324633461295009519F058FE1298854232
:10557C0003D028B10168496901E0016809698847CD
:10558C0046F2A410C0F2030008300890CB2042F27F
:10559C00A83102AF8DF80800C2F200012CA83A46DF
:1055AC003B460C96009619F039FE0C98864203D0B7
:1055BC0028B10168496901E001680969884746F228
:1055CC00C810C0F2030008300290402004F12808F3
:1055DC000DF19C0B27902CA841465A465B4606972A
:1055EC00009719F075FE0698874203D028B1016820
:1055FC00496901E00168096988470020ADF8AC00F1
:10560C00CDE92900CDE9270042F2B02142F2D410B5
:10561C00C2F20001C2F20000886099F8000008266E
:10562C000E701BF015FC41F67861C2F200010820E7
:10563C0024F068FC46F21070C0F20300017845F2C9
:10564C007C02C0F20302082029F0EAF840F2B171A2
:10565C00C0F2030108201FF0AFFB2BF0CDFD99F831
:10566C00000025F02FFF4FF6FF70C0F20140CDF87F
:10567C00BE004FF400402E9047F60000C0F2FF70C1
:10568C002C90012040F203118DF8BC008DF8C20063
:10569C008DF8B400C0F2001199F800000DF1B00AB9
:1056AC00CDF8C31051462DF0A2FF42F280540620D3
:1056BC000BF10A07C2F20004CDF89E004FF420252E
:1056CC003846214604228DF89C60CDF8A2502DF06E
:1056DC0087FA99F8000059462DF07BFF3846214691
:1056EC000422CDF89E608DF89C60CDF8A2502DF070
:1056FC0077FA99F8000059462DF06BFF0020C0F2A4
:10570C000640CDF89E004FF48030CDF8A20038460C
:10571C00214604228DF89C602DF062FA99F8000065
:10572C0059462DF056FF46F21270C0F20300017874
:10573C0046F23A02C0F20302082029F0ADF840F21A
:10574C008571C0F203010820002229F0E1F899F8D4
:10575C00001042F25430C2F200001FF0D9FE99F84A
:10576C0000004FF4806147F230524FF480642EF009
:10577C0055F946F2EC10C0F20300083032AA2C9016
:10578C0027A841461346CDF8C0A03294CDF800A00E
:10579C0019F09EFD3098824503D028B10168496903
:1057AC0001E001680969884799F8001041F6C87052
:1057BC00C2F2000018F046F833B0BDE8F08F704725
:1057CC002DE9F04FC3B00DF1450B88460146584604
:1057DC0091462EF07DF908F0080600250DF1040A1B
:1057EC00ECB22046514629F06DFB0D2804D007463B
:1057FC000A2802D1B8E100BFBEBB2046594624F0AE
:10580C00A0F828B9042D05F10105E9D305250424D8
:10581C00042D01D90127A7E15FEA087061D40BF1CF
:10582C0037010DF1860002222DF06AFA9DF83A003C
:10583C00BDF88610C007ADF8C81000F095800AF1CD
:10584C00370732A9384602222CF040FF012840F0DD
:10585C008B809DF83A00FF2100F0FE008DF83A0095
:10586C00384604222DF0EEFC82E002202146412233
:10587C005B4625F037FC074646F20800C2F20000F2
:10588C0000F116040BF10B01204602222CF01EFF36
:10589C0078B90BF13701204602222CF017FF40B9E2
:1058AC000BF13B01204602222CF010FF002800F0E7
:1058BC005B810C202EF00AFA002800F042810021B6
:1058CC000C2204462DF0BEFC46F68170C2F200009C
:1058DC00B9F1000F18BF4FF00109007884F80A9055
:1058EC0028E19DF8450040066CD49DF84600C007A1
:1058FC0000F0B6800DF1C8090DF1450148462EF0B7
:10590C00E7F80DF1860701A938462EF0E1F89DF86D
:10591C00BC00810700F14B8110F001004FF03B00FF
:10592C0008BF37204FF00205384409F137014FF01A
:10593C00040208BF01252DF0E3F99DF8BC0039469F
:10594C0028438DF8BC0001A82EF0C2F808F06001C5
:10595C009DF805004039B1FA81F100F0FE004909CB
:10596C0008448DF805007BE09DF83A0080073FD491
:10597C000BF122074FF0FF300AF12206ADF8D000F0
:10598C00CDE93200304639460A222CF09FFE002821
:10599C000AF12C0542D0304629460A222DF0B0F9E6
:1059AC0032AF284639460A222DF0AAF9384631463C
:1059BC000A222CF08BFE002800F0CF8001A82DF0DD
:1059CC000AFCCAE04FF0FF300AF12207ADF8D00014
:1059DC00CDE9320032A839460A222CF077FE0BF1C1
:1059EC00220938B3384649460A222DF089F929E0B4
:1059FC000AF13B0632A9304602222CF067FE9DF8D4
:105A0C003A10012840F09F8001F0FD008DF83A001B
:105A1C003046FF2104222DF015FC9EE02846394625
:105A2C000A222CF053FE002800F0A28032A928464E
:105A3C000A2290E0384649460A222CF047FE0028FC
:105A4C0000F0A68008F060019DF804006039B1FAFE
:105A5C0081F100F0BF00490940EA81108DF8040083
:105A6C009DF84600800606D50AF10B000BF10B01E0
:105A7C0002222DF045F99DF84600400613D59DF8FD
:105A8C0005000BF10D0140F040008DF805000AF106
:105A9C000D0001222DF034F90AF112000BF1120164
:105AAC0010222DF02DF99DF84500800605D59DF8A6
:105ABC00040040F020008DF804000AF10E000BF1F8
:105ACC000E0104222DF01CF9BDF884002146ADF81E
