:10000000003C0120DDAD02000DCF02000DCF02004B
:100010000DCF02000DCF02000DCF02000DCF020068
:100020000DCF02000DCF02000DCF02000DCF020058
:0C0030000DCF02000DCF0200F52B0100E7
:10003C002DE9F047A8B004460078A0F1A0015C2996
:10004C0000F26780DFE811F0BC00DF005D005D00AE
:10005C00F70024015E015D0083018C01A801E5011C
:10006C0014023B024E025A02680273027C028502A1
:10007C008B0294029A02C802DF02EA02F60206031D
:10008C001103B900B900B9001B032503B900B9006D
:10009C003003B900B900B900B900B900B900B90012
:1000AC00B9003B034103B900B900B900B900B9006C
:1000BC00B900B900B9004A035303B900B900B9003B
:1000CC00B900B900B900B900B9005C03B900B900B6
:1000DC006303B9008503B900B900B900B9008F03F7
:1000EC00B900B900B900B900B900B900B900B9003C
:1000FC00B900B900B900B900B9009803A6035D00B6
:10010C00B90060681221002808BF0221617001F05B
:10011C0083BA4D2800F25180A678DFE810F04B032B
:10012C004E005B03650345044E004E006E047F04D5
:10013C00CD044E004E004E004E004E004E00D60434
:10014C00E00408054E002D05350643064E004E060C
:10015C005D064E00680682064E00AB06CF06D20640
:10016C00DF0603074E004E004E004E004E004D07BA
:10017C004E005B076C077D074E004E004E004E0094
:10018C004E004E004E004E004E004E004E004E00F3
:10019C004E009607B107CB074E004E004E004E00A6
:1001AC00E5074E0047084E0058084E004E004E0022
:1001BC004E0078088F089C08A608122001F02BBA74
:1001CC006068002801F02682A168002901F02282D3
:1001DC0001783A20002908BF3B200BAD00211122E9
:1001EC002B462FF0C9FB0028607041F01582D4E932
:1001FC0001109DF82C204270097800F8021B691C34
:10020C00102200F034BE6168002901F003820878E6
:10021C004A783A258B788DF82C20002808BF3B258E
:10022C000BA80130002B01F03680033110222FF087
:10023C00A1FD01F032B86168002901F0EB81A068E2
:10024C00002801F0E78111F8012B00F8012B30F0A8
:10025C00CFFB60680178002901F0AD81DFF8DC0E7E
:10026C000BAE002506F108080788AF4201F0D081DB
:10027C00A9B204200022142300962CF035F86070EB
:10028C0020B930F067F8002801F023820135ECE743
:10029C006068002801F0BE810178002901F003801C
:1002AC00DFF8980E0DF12C0A00250DF11C08002624
:1002BC000AF10809CDE90955CDE907550788B74278
:1002CC0001F0D781B1B2042000221423CDF800A094
:1002DC002CF00AF8607098B960684946082204301E
:1002EC002EF0B8F9002801F0C2814DB96068414682
:1002FC00082204302EF0AEF90025002808BF354640
:10030C000136DCE76068002801F08481017800295F
:10031C0000F0E387DFF8240E0DF12C09002709F11A
:10032C0008080588BD4201F07781BEB20420002286
:10033C001423CDF8009031462BF0D6FF607020B915
:10034C0030F008F8002801F0A6810137EAE7DFF861
:10035C00F00D4FF48071007822F02AFA01F058B9B0
:10036C006068002801F05681418800882BF016FA4D
:10037C0068B9606801224188008826F009F8606835
:10038C00418800882BF00AFA002801F09B816168F3
:10039C000979417001F03CB96168002900F070875F
:1003AC00DFF8A05D087885F8260095F8722048885B
:1003BC00E882087A2876488968834868A862888920
:1003CC00A884887B85F83800C87B6871087CE87045
:1003DC004869286388696863087F824202D027F0E5
:1003EC00DDF8616805F139001D3130F061FB95F8DD
:1003FC002600082840F04C87DFF8482D2120742176
:10040C0030F016F900200221002529F0CFF800F079
:10041C0040BF6068002800F03587007827F0BEF8F0
:10042C006168DFF8205D287E4978884212D02976F1
:10043C000BA9E1202BF01CFD606841789DF82C0085
:10044C00884207D08DF82C100BA9E12027F03EFA3A
:10045C0060684078012101FA00F0A8622DF0DCFD03
:10046C0000260120A5F8706020F0F2FE00F00BBF12
:10047C006068002801F0CE8001884088ADF81C002F
:10048C00ADF82C100BA9532027F020FA07A9502007
:10049C0027F01CFA0DF11B01E1202BF0E9FC606840
:1004AC009DF81B100079814201F0B2808DF81B0081
:1004BC000DF11B01E12027F009FA01F0A9B86168E0
:1004CC00002901F0A780DFF8800C30F091FA606809
:1004DC00DFF8782C0189807A1180DFF8741C0870A1
:1004EC0001F096B86068002801F0948000216170DA
:1004FC008178008823F018FE01F08EB8A0680028DF
:10050C0001F088800020607026F0D8FC002800F0F4
:10051C00E886A16800F08FBE6068002801F07A8040
:10052C000021617000780BF03BFB01F075B860683E
:10053C00002801F06F80007827F02EFA01F06BB8DC
:10054C00A068002801F06680002060702FF0DAFFB0
:10055C00B2E00020607029F059FC01F05DB8A06891
:10056C00002801F057800020607030F09DF8A3E067
:10057C000020607029F082FC01F04EB86068002801
:10058C0001F0488000216170017D19B1C17CDFF858
:10059C00C42B5174817D19B1417DDFF8B82B917456
:1005AC00017C19B1C189DFF8AC2B1181017B19B128
:1005BC008168DFF8A02B5160817C19B1417CDFF898
:1005CC00942B51730179002901F026800068DFF823
:1005DC00841B086001F020B8A068002801F01A8084
:1005EC00DFF8701BD1F80D20C0F80D2091E82C001D
:1005FC0085600D7BC0E900230573B1F81110A0F8DC
:10060C00111001F005B8A068002801F0038000214A
:10061C006170411C27F07CF900F0FEBF6068002877
:10062C0000F0F8870021617025F09EFCA16808801D
:10063C0000F0F2BF6568002D00F0EC87EB88AA880B
:10064C00698828782E890A35CDE900650EF0BCFA48
:10065C0000F0E1BF6068002800F0DC8782884188E8
:10066C0000780AF061FB00F0D6BF6068002800F04B
:10067C00D18700F1120128F0F5F900F0CCBF6068C9
:10068C00002800F0C7874168007825F0DFFC00F0F7
:10069C00C2BF6068002800F0BD870021617000783F
:1006AC002AF0D8F800F0B8BFA068002800F0B28794
:1006BC00002060702DF030FDA16800F0BDBD002061
:1006CC0060701DF001F800F0A7BF6068002800F012
:1006DC00A187006829F0B6FB00F09DBF6068002878
:1006EC0000F09887006804F02FFF00F094BF60685A
:1006FC00002800F08F87006808F0CDFB00F08BBF5E
:10070C000020DFF8541A6070E07800F095BD616845
:10071C00002900F081870820ADF82C000888ADF87E
:10072C002E00081D0BAC90E86800221D68C2087CE6
:10073C00D1E905231C31CDE910238DF83C0004F1DF
:10074C001C0010222FF016FB20462BF00FFE00F0A1
:10075C0063BF6068002800F05F87817A008827F00B
:10076C00C5FC00F059BF60680078002800F08D854A
:10077C0029F018FA00F050BF6068002800F04A8792
:10078C00DFF8D819097801293FF617AD2EF0B4FF20
:10079C0000F041BF6068002800F03C87DFF8BC190E
:1007AC00097801293FF609AD4168008823F0B4FBB4
:1007BC0000F031BF6068002800F02C87407818B139
:1007CC00FF20032128F0F2FE2FF082FDE8480121E2
:1007DC000160FEE76068002800F01C8703210171AE
:1007EC00E449016000F014BF6268002A00F012872F
:1007FC00A168002900F00E8700206070107840B1CD
:10080C0001200870DFF858090078002818BF012073
:10081C004870907840B101200871DFF848090078E1
:10082C00002818BF01204871D07848B100202FF063
:10083C008FF8D4E90121C0F34030C87101208871D0
:10084C00107950B30120087201F10C002FF080F8E0
:10085C00A1680882DFF80409007802281DD1DFF8AE
:10086C0008090078C8B9DFF804590120A847A16825
:10087C0048610220A847A16888610420A847A168A4
:10088C00C8610820A847A16808621020A847A16881
:10089C0048622020A847A16888626068427932B11A
:1008AC00012281F82C20DFF8C8281288CA858279A9
:1008BC0032B1012281F83020DFF8B82812884A863C
:1008CC00C27932B1012281F83420DFF8AC281288C9
:1008DC00CA86027A3AB1012281F83820DFF89C28C6
:1008EC00127881F83920427A3AB1012281F83A2003
:1008FC00DFF88C28127881F83B20827A3AB10122F9
:10090C0081F83C20DFF87C28127881F83D20C27AEF
:10091C003AB1012281F83E20DFF86C28127881F878
:10092C003F20027B3AB1012281F84020DFF85C289D
:10093C00127881F84120427B3AB1012281F84220A1
:10094C00DFF84C28127881F84320827B3AB10122DF
:10095C0081F84420DFF83C28127881F84520C27BCE
:10096C00002A00F0C18601201122002681F84600E1
:10097C000BAD812000212B462EF0FEFF9DF82C00A4
:10098C00A168002881F8470000F0918630F0EFF85C
:10099C00A1680028886400F0A2869DF82C20691CB0
:1009AC002FF0E8F900F09FBE254655F8040F0028FB
:1009BC0000F0308600216170017841B14078DFF899
:1009CC00A0270121107063202FF032FE28680179D6
:1009DC0041B14079DFF88C27012110706D202FF088
:1009EC0027FE28688179002900F07D84C1794FF4B5
:1009FC0000500EF02FF800F08ABC6068002800F060
:100A0C00098690F9005028462DF020FFA068002898
:100A1C0000F0FE85E9B2017000F0FABD60680028B4
:100A2C0000F0F885002161702A212FF019F8DFF809
:100A3C0014576068DFF860670822E98A0180A98C86
:100A4C008181698BC182DFF854170978817205F1B5
:100A5C0039010E30B04767682EF0CCFD0146B81C4A
:100A6C000822B047606805F11C0108221830B04715
:100A7C006068297E012280F82310DFF8241780F8A3
:100A8C0021208978CB0718BF80F824208A0744BF1F
:100A9C00012280F825204A0744BF012280F8262035
:100AAC000A0744BF012280F82720490644BF0121D0
:100ABC0080F8281000F0B0BD6068002800F0AA850E
:100ACC0000782FF0C1FD00F0A3BD6068002800F095
:100ADC00A1850088002111F023FC00F09DBD606809
:100AEC00002800F0978530462EF03CFB0546002888
:100AFC0000F01585E888DFF8AC1640F00C00E880B3
:100B0C0002202EF0E5FDDFF8A01603202EF0E0FD0C
:100B1C0040F20110ADF831006068016800790B916A
:100B2C008DF830000BA823F03FF800F074BD60681E
:100B3C00002800F06F850BAD011D082228462FF010
:100B4C0019F903202DF058FA6068C07B2AF016FCC6
:100B5C00DFF84C0683786068418886890278807B50
:100B6C00CDE90060284616F085F800F054BD00BFB2
:100B7C007C052043010102066768002F00F04A85BE
:100B8C002FF003FE0546002800F0DA84387828B1EF
:100B9C00E988787821F001010843E880B87830B111
:100BAC00E988F87821F0020141EA4000E8803879C0
:100BBC0030B1E988787921F0040141EA8000E880BD
:100BCC00B87930B1E988F87921F0080141EAC00020
:100BDC00E880387A30B1E988787A21F0100141EA5E
:100BEC000010E880B87A30B1E988F87A21F0200159
:100BFC0041EA4010E880387B30B1E988787B21F0FD
:100C0C00400141EA8010E880B87B28B1A968F87BE4
:100C1C0021F001010843A860387C38B1A968787CC0
:100C2C0021F00201002818BF0231A960B87C38B14C
:100C3C00A968F87C21F00401002818BF0431A960D0
:100C4C00B87D38B1A968F87D21F01001002818BFD3
:100C5C001031A960387E38B1A968787E21F0200166
:100C6C00002818BF2031A960B87E38B1A968F87E79
:100C7C0021F04001002818BF4031A96097F82200EC
:100C8C0048B1A96897F8230021F48061002818BFA7
:100C9C0001F58061A96097F8260048B1A96897F81A
:100CAC00270021F40051002818BF01F50051A9605C
:100CBC0097F8280048B1A96897F8290021F48041D9
:100CCC00002818BF01F58041A96097F82A0048B1A7
:100CDC00A96897F82B0021F40041002818BF01F5F2
:100CEC000041A96097F8340048B1A96897F835001D
:100CFC0021F48011002818BF01F58011A96097F824
:100D0C00380048B1A96897F8390021F4800100280F
:100D1C0018BF01F58001A96097F83C0048B1A9689B
:100D2C0097F83D0021F08071002818BF01F1807107
:100D3C00A96097F83E0048B1A96897F83F0021F0E8
:100D4C000071002818BF01F10071A96097F84000EC
:100D5C0048B1A96897F8410021F00061002818BF3C
:100D6C0001F10061A96097F84200002800F054845A
:100D7C0097F84310A86800290CBF20F0805040F071
:100D8C008050A86000F048BC6068002800F04284E5
:100D9C008178002900F0E783C2780321002A08BF7C
:100DAC000121E1E36168002900F0348408888A7825
:100DBC0001211EF0A9FB00F02EBC022060706068BF
:100DCC00002800F029844188007828F05BF900287D
:100DDC0040F01E8400F020BC6068002800F01A84EB
:100DEC0000216170007828F0D9FF00F015BC606814
:100DFC00002800F00F84A168002900F00B8400216A
:100E0C00617000782DF0F4FDA168087040002FF09F
:100E1C00AEFE0146D4E90102516000782CF05AFC78
:100E2C00FAE36068002800F0F583A068002800F061
:100E3C00F1830026C0E900666068418800782BF0D9
:100E4C006FFF002800F0CF8366700546A16800880C
:100E5C000880A8780028887000F0DE832FF087FEC9
:100E6C00A1680028486000F0D7838A78E91C2EF02E
:100E7C0081FFD1E36068002800F0CC830021CDF81D
:100E8C003A10CDF83610CDF83210CDF82E1002797C
:100E9C004188ADF82C105AB1816849B10F2A28BF8E
:100EAC000F228DF82E200BA803302EF063FF606804
:100EBC0000780BA9012221F0A1F8ACE32EF0BCFCC8
:100ECC00A9E36568002D00F0A5832F7838462EF035
:100EDC0055F9002800F05183D0209CE3606800286D
:100EEC0000F0988300782EF049F9002800F09283E6
:100EFC000546007B29F060FC0028607040F08C8374
:100F0C00DFF8E40A4168002900F0868300220C46D1
:100F1C002346002C00F0CD83AB4200F0CA831C6842
:100F2C001A46F5E76668002E00F07483357D284676
:100F3C002EF024F9002800F06D83307F102141EA57
:100F4C004007717F002908BF4700B07F002818BFF9
:100F5C0047F00807F07F002818BF47F0200796F8E5
:100F6C002000002818BF47F0400796F82100002801
:100F7C0018BF67F07F07D6F8188028462EF0CAFFF6
:100F8C00002800F0478305466068827A01788DF866
:100F9C00352082898DF83410ADF836204A1E022A8D
:100FAC0005D3032900F047840F2940F04984418878
:100FBC00ADF82C1000F044BC61680220002900F050
:100FCC002A830A888DF834004988ADF82C200BA8A8
:100FDC0002221DE061680220002900F01C838DF8BC
:100FEC003400002308880A794988ADF82C000BA836
:100FFC002CF0BCFA0FE361680220002900F00B838F
:10100C008DF83400052208884988ADF82C000BA80F
:10101C0000232DF0FFFBFEE265680220002D00F09E
:10102C00FA828DF834002E7B00272888AB79AA88A9
:10103C006988ADF82C00A8682D69CDE90006CDE9CA
:10104C0002570BA818F032FCE5E265680220002D6F
:10105C0000F0E1828DF83400EE682F7C4FF0000C2C
:10106C002888EB8869882A79ADF82C00287A6D6974
:10107C008DE8C100CDE9035C0BA818F0BFFBCAE2F8
:10108C006168002900F0C68202208DF83400887B4C
:10109C000D88421E8DF82400022AADF82C5005D381
:1010AC00032800F0A2820F2840F0A482088AADF831
:1010BC001C009FE26068002800F0AC8202218DF8D1
:1010CC0034100188ADF82C10817B4A1E8DF8241049
:1010DC00022A05D3032900F0B0820F2940F0B38215
:1010EC00018AADF81C10AEE26068002800F0928214
:1010FC0002214FF6FC728DF8341001888A1A032AEB
:10110C0011D8022A0FD02FF0D7F8ADF82C00606858
:10111C000021837AC27A0091811C0BA827F01CFF56
:10112C00607060680188ADF82C10837AC27A002157
:10113C000091811C0BA827F00FFF6CE2EE36030028
:10114C00FE72002090630020CC260020CA260020CE
:10115C00C8260020A022002097280020E02600208E
:10116C00D42800202C730020D928002099210200BB
:10117C00822800207E28002086280020CA280020F3
:10118C00C7280020BC280020C8280020D328002015
:10119C00BD280020D628002081FD020094270020C5
:1011AC00787100207D950200E9F902006268022046
:1011BC00002A00F030828DF83400002310889178DA
:1011CC00D278ADF82C000BA822F07AFE23E26168ED
:1011DC00002900F01F82CA7A887A0B7B4D7B002A8B
:1011EC0018BF40F00200002B18BF40F00400002D87
:1011FC0018BF40F008008A7B002A18BF40F040005E
:10120C00C2B208880231002328F058FD03E260685E
:10121C00002800F0FF81A168002900F0FB81007814
:10122C000BA92CF07FFC0020BDF82C206070D4E9B9
:10123C000101A1F8012000780870EDE16068002838
:10124C0000F0E881B0F80110ADF82C1000780BA973
:10125C002DF0A4FBDFE16068002800F0DB81017A4F
:10126C00427A002321F034FBD5E16068002800F0BD
:10127C00D1818178C278008800232AF0F7F8CAE17E
:10128C00022506E002266670C6E12CF029FCC3E1BB
:10129C0000256570C0E12AF019F90BAA2846112126
:1012AC002FF0C6F9B7E100F10C010BA810222EF0BB
:1012BC0061FD6068D0E907120430CDE90F1207A96F
:1012CC002CF066F90028607000F0FE816168488897
:1012DC0004310BAA24F0D9FA9DE101302EF096F8D6
:1012EC0099E1012097E1017A89B1C168008A42072E
:1012FC0001D064290BD316F075FD002001210DF0EF
:10130C00A9FBDFF8EC26352028212FF091F928686D
:10131C00817C41B1808ADFF8DC26022110804420D8
:10132C002FF086F92868817D41B1008BDFF8C82643
:10133C000221108046202FF07BF92868817E41B174
:10134C00808BDFF8B8260221108083202FF070F9F3
:10135C002868817F41B1C07FDFF8A426012110707D
:10136C0029202FF065F9286890F8201049B190F8E1
:10137C002100DFF89026012110702B202FF058F956
:10138C00286890F8221049B190F82300DFF87826ED
:10139C000121107043202FF04BF9286890F824108D
:1013AC0049B190F82500DFF86426012110702E2039
:1013BC002FF03EF9286890F8261049B190F82700D4
:1013CC00DFF84C26012110702F202FF031F92868FE
:1013DC0090F8281049B190F82900DFF8382601213F
:1013EC00107030202FF024F9286890F82A1049B199
:1013FC0090F82B00DFF82026012110702C202FF004
:10140C0017F9286890F82C1089B190F82D20102A23
:10141C0028BF10228DF82C20016B0BAC601C2EF019
:10142C00A9FC8120112122462FF002F9286890F89E
:10143C00341049B190F83510102928BF1021826B57
:10144C0062202FF0F5F8286890F83C1041B1006C40
:10145C00DFF8C8250421106084202FF0E9F82868F3
:10146C0090F8441049B190F84500DFF8B4250121FB
:10147C0010704B202FF0DCF8286890F8461069B1FA
:10148C00DFF8A04500F14701082220462EF072FC3F
:10149C004720082122462FF0CBF8286890F84F10EF
:1014AC0031B100F15002012008212FF0C1F8286859
:1014BC0090F8581041B190F859008DF82C000BA9F8
:1014CC00522026F003FA286890F85E1049B190F883
:1014DC005F00DFF854250121107033202FF0A8F89D
:1014EC00286890F85C1059B190F85D00DFF83C2545
:1014FC000121107032202FF09BF825F077FB286823
:10150C0090F86010002900F0878090F86100DFF8F7
:10151C00D8144870DFF8CC1481F868007CE01C20EB
:10152C002FF025FB002877D01C2105462EF098FAC9
:10153C0028462E7129F0DCF900287FF4DBAA91E013
:10154C001C202FF014FB002866D01C2105462EF021
:10155C0087FA28462E7129F0CBF9002800F08280FA
:10156C006768FFF713BB002103794279002B18BF82
:10157C004031008810F0F4FB4DE02DF00BFEDFF84D
:10158C0068140978884270D22FF0FFF820B1814698
:10159C00007B002800F08E811C202FF0E8FAD8B3D5
:1015AC001C2181462EF05CFA89F804604FF001088A
:1015BC0065682F7880E1013007A92BF0E9FF607096
:1015CC0050BB07980021182240880BAB2EF0D4F9A1
:1015DC00607008BBA068DDE90F12C0E90712093082
:1015EC000BA9FEF70DBEB12015E0103107A82FF0A6
:1015FC00FFF96168DFF8EC03C08A854210D1887A64
:10160C000A7E0C310123009107A90BF0B5FE08B13D
:10161C00002000E002206070012028B0BDE8F087B7
:10162C0088890A7E8B7A07AE0025CDE90006CDE9C4
:10163C0002258A1C0BA9212011E000F1100107A83A
:10164C002FF0D6F960688189027E837A07AE002577
:10165C00CDE90225CDE90016821C0BA922201EF033
:10166C0081FFD8E728462FF080FAD120D3E7374600
:10167C003546012DD0DB60680822011D48462EF04E
:10168C0079FB60681422D0E90710CDE90B10B9B2D0
:10169C000BAB042008E00BAD142128462EF0E0F92A
:1016AC000420314614222B462AF034FEB3E78E6414
:1016BC0019E0AB42B0D1A94208BF021D28681060E6
:1016CC002846E3E0C820A6E70798182140880BAA13
:1016DC00E6E5A068DDE90B12C0E907129CE70020E3
:1016EC00886481F847006068007C70B110202FF08E
:1016FC003EFA0346A06803653BB10121102280F835
:10170C004C10622000212EF037F96068417C31B119
:10171C00A168012281F85420C04A12688A65817C34
:10172C0039B1A168012281F85C20BD4A127881F898
:10173C005D20C17C51B1A0680121082280F85E10A7
:10174C00A8495F3039312EF015FB6068017D59B125
:10175C00A568012085F867002DF04CFF014605F1C6
:10176C0068002FF045F96068417D79B10BA95220D2
:10177C002AF07EFBA068012180F870109DF82C10D7
:10178C00002918BF012180F871106068817D19B1A2
:10179C00A1680122A1F87220C17D51B1A16801227A
:1017AC0081F87420A14A1278002A18BF012281F80E
:1017BC007520017E39B1A168012281F876209A4A00
:1017CC00127881F87720417E51B1A168012281F80D
:1017DC007820854A5278002A18BF012281F8792096
:1017EC00807E00283FF418AFA068012580F87A505D
:1017FC007C4890F82600082818BF042817D0A8B9F0
:10180C0021202FF0B0F8742810D10BAB212000212F
:10181C00742200252EF0B0F848B99DF85200043817
:10182C0020F00400B0FA80F0450900E00025A06823
:10183C0080F87B50F0E6811C0BA82FF0D9F860687B
:10184C00817B31B348002FF092F988B3616806466A
:10185C000022887B904206D00B6933F8123026F8B0
:10186C0012300132F6E78B8CCA8AD1F828C091F875
:10187C002210FFB2CDE90406CDE90271CDE900C812
:10188C000BA8294625F09CFD607030462FF06DF9B1
:10189C00C2E6838CC28A816A90F82200FEB2CDE93E
:1018AC000018CDE902600BA829460AF097F8B2E6B9
:1018BC001020B0E64FF000084E4606F80C7F287A50
:1018CC0030734A48706014202FF051F90028B06032
:1018DC0045D014212EF0C4F86268D9F8140052686F
:1018EC008179927901F0F00102F00F0211448171BB
:1018FC006168D9F8140049680A780270D1F802209E
:10190C00C0F80220CA79C271097B017350002FF014
:10191C002EF9D9F81410886060B1CA7900239A4264
:10192C0008D065686D68AD6835F8135020F8135011
:10193C000133F4E7087B40002FF019F9D9F81410A3
:10194C00086160B1097B0022914208D063685B6832
:10195C001B6933F8123020F812300132F4E73046AC
:10196C002BF0A6FEB82802D00746022806D1307804
:10197C0028F022FF30462BF09BFE074637B1B8F11A
:10198C00000F0FD048462FF0F0F823E0B8F1000F0D
:10199C003FF442AE484628F0ABFF00287FF43CAE43
:1019AC00484673E7D9F8140078B1816821B108462C
:1019BC002FF0DBF8D9F81400016921B108462FF09B
:1019CC00D4F8D9F814002FF0D0F80020C6E90000A4
:1019DC00C6E90200B82F3FF47FAA022F3FF47CAA7D
:1019EC001AE600BF9063002054270020D55A00202F
:1019FC002C6D0020822800207E28002086280020C4
:101A0C00CA280020C7280020BC280020C828002095
:101A1C00D3280020BD280020D62800206C280020C8
:101A2C00B92800208C270020C1280020C2280020C3
:101A3C002DE9F04395B00179044601F00700012827
:101A4C0040F0DA81DFF83009031D2068027D1B6845
:101A5C00002B00F0D1811D799542F8D19E68002EA3
:101A6C0000F0CA8183880125082B00F2C681DFE8CB
:101A7C0013F00900C401C401160026006800D00050
:101A8C00C401DC00080700F13983E07A002840F03B
:101A9C00B3813068002800F0318380472EE3E37A6D
:101AAC00090700F1EB80012B00F0AB81002B40F01B
:101ABC00A381E0681146008822F036FB1EE308077C
:101ACC0000F1F48000200DF11C0800211222ADF869
:101ADC001A0040462EF06BF8E668E07A3746052887
:101AEC0037F8011BADF81C1000F28681DFE810F00E
:101AFC000600CB01E9010C02330248022068324691
:101B0C00007D07A926F0ACF96FF07602B82808BF63
:101B1C006FF07502002808BF02462EF000FF40F05F
:101B2C00ED824888002840F0E982A37A087DBDF850
:101B3C001C40012506310293D3B20022CDE90045A9
:101B4C0006E2080700F1EF800020E768002122225E
:101B5C008DF81A000CAD28462EF029F8E07A398859
:101B6C00BA7806288DF83220ADF8301000F2448196
:101B7C00DFE810F007001C0223022D023802450298
:101B8C004E02B7F8030000210DF11A030422ADF840
:101B9C00340020687E79007D0091052127F098FDA6
:101BAC009DF81A00063750B10F2E28BF0F2605F1ED
:101BBC000900394632468DF838602EF0FBF9E068A2
:101BCC003E44218A801B08448DF84800C0B288B17D
:101BDC00092824BF08208DF8480005F1190738465C
:101BEC00FF2108222DF0E3FF9DF8482038463146AE
:101BFC002EF0E0F9BDF83010002900F09F8220682B
:101C0C00007D2BF08DF8002800F03D83BDF83010DE
:101C1C0095E2080700F17282E07A022800F2EC806B
:101C2C007169002940F0698268E2080700F1668258
:101C3C00E17A082900F2E0800020DFE811F00A00C8
:101C4C00350242025202090034024102510257028B
:101C5C000121726A002A00F05182E06803788DF845
:101C6C003030013BFD2B00F24E82B0F801008DF8B4
:101C7C003410ADF832000CA890473FE2002B40F036
:101C8C00BB8006300C90E0680088ADF834000CA8DE
:101C9C0024F090F9F168002900F030822068E268A5
:101CAC00063007901088ADF82000A3E0E56807AF78
:101CBC000021122238462DF07AFF0CA800211422A4
:101CCC002DF075FFE07A022804D300F0A9800328D8
:101CDC0040F0928029788DF83510B5F80120ADF8D8
:101CEC001C2069B901280BD1EA780F2A28BF0F22D2
:101CFC008DF81E20F81C291D2EF05CF9B81C1090D4
:101D0C00B16B0025002978D001208DF83C500E973E
:101D1C008DF83600E07A8DF83400206806300C908F
:101D2C000CA8884769E00DF13008D4F80C9000211C
:101D3C00222240462DF03BFF07A8002114222DF053
:101D4C0036FFE17A99F8000006298DF821001CD1A4
:101D5C0099F8011000288DF82810B9F80210ADF888
:101D6C00301078D00025716C51B1E07ACDF82C8010
:101D7C0009958DF8200020680630079007A8884741
:101D8C00002D00F0BB8128468AE1B9F801008A1EBB
:101D9C00032AADF8300009F103001AD3C9B10129A7
:101DAC002AD199F8030099F8065009F1070739462A
:101DBC008DF83200B9F804000F2DADF8340028BFAF
:101DCC000F2508F109002A468DF838502EF0F2F84C
:101DDC007819716C002900F09181E27A032A1CBFFA
:101DEC0000788DF83200CDF82C808DF820202068FA
:101DFC000630079007A880E10125284615B0BDE8FC
:101E0C00F083B1680025ADF81C50002900F0228148
:101E1C0006300C900CA8884720688188027D1AE156
:101E2C0028788DF83C006F78002F00F0278178001F
:101E3C002EF04BFF002800F021818046A81C8DF865
:101E4C0036704146002F00F01B8130F8022B013F09
:101E5C0021F8022BF6E799F80470002F3FF482AFBB
:101E6C0038462EF032FF00283FF47CAF054609F1CE
:101E7C00050000218DF822708F423FF474AF425C54
:101E8C006A540131F8E72068427D002A40F036811F
:101E9C0042880025002AB0D1007D89B22AF040FF8B
:101EAC002168A37A012400280A7DCDE900430CBFE8
:101EBC008B2580460631434610462A461DF050F8C5
:101ECC0058E296F8009020202EF0FFFE002800F03B
:101EDC0020818046B9F1000F00F0B7810026002563
:101EEC004D4580F0128120683988007DADF81C10BA
:101EFC002AF016FF28B1BDF81C10F0B2013628F8F4
:101F0C00101002370135EBE7206889B2007D1FF015
:101F1C001DFD2068BDF81C10007D27F0B3F80025CE
:101F2C000022002808BF6FF074022EF0F8FC7FF43A
:101F3C0064AF4888002840F0E180A37ABDF81C40CB
:101F4C00087D012506310293D3B2CDE90045032269
:101F5C0026F0CCFC0EE22068007D0CA92BF0BAFB1D
:101F6C00002800F0CB8005460CAE2068002D007DCB
:101F7C0000F0C68036F8021B1FF0E8FC013DF4E7C8
:101F8C00206800250DF11A0303210022007D009525
:101F9C0027F09EFBBDF81A0000283FF42EAF2068F6
:101FAC003246007D07A925F05BFFA7E02EF0E8FB89
:101FBC00002800F0E8800023C9E1206889B2007D88
:101FCC001CF090FF002800F0EA800022F3E00804E7
:101FDC0000F007812EF0C0FB002800F05681BDF800
:101FEC003010FFE0080400F003812EF0B5FB002850
:101FFC0000F05F819DF83220BDF83010F9E02EF032
:10200C00BFFB00287AD0316C002977D00890EEE61F
:10201C00080404D02EF0A0FB002800F04C81052011
:10202C002EF053FE002800F0008105462068BDF814
:10203C0030102A46007D21F0CBFB81462068417D83
:10204C00002900F06981B9F1000F00F050814FF0C8
:10205C00000835E103210095104607AB002227F05C
:10206C0037FBBDF81C20002A48D02168A37A087DD4
:10207C0000930631012329F081FC7BE14FF000082D
:10208C00B16B49B1E07ACDF838808DF83400206816
:10209C0006300C900CA88847B8F1000F2ED04046A3
:1020AC002EF069FC2AE00120B16A39B3E26813789A
:1020BC0052788DF832008DF830308DF831201BE0DD
:1020CC000120F16AD1B1E2681378547852888DF806
:1020DC0034008DF83030ADF832208DF831400BE003
:1020EC000120316B51B18DF8300005E0716B29B1D5
:1020FC00E0680088ADF830000CA8884700257CE625
:10210C0027F04CFEFAE7872577E6300640F0A380EF
:10211C00B7E089202168A37A01258DF83100E07A97
:10212C0000248A888DF83000087DCDE90055CDE972
:10213C00024306310CAB28F0B3F81BE100212068F8
:10214C009DF83220007D1CF08FFE002872D00646D0
:10215C00BDF83400B0809DF81A0030B106F10800CB
:10216C0005F1080110222DF025FF9DF8482006F1FD
:10217C00190005F119012DF01DFF9DF8480030766E
:10218C002AF04AFF5FE0BDF8301031B12068007DC5
:10219C002AF0C6FD002800F0D8808B23D6E02068FA
:1021AC00BDF83010007D2AF0BBFD6FF074020028E2
:1021BC0008BF6FF07A022EF0B2FB40F0DB8048884B
:1021CC00002840F0D780A37ABDF83040087D9DF8F8
:1021DC003250012606310393D3B28DE870000222EF
:1021EC00B0E000212068007D1FF0B0FB00234DE023
:1021FC0000212068007D1CF037FE074628B927F027
:10220C007BF9042800F291800CAFF16B002972D09D
:10221C00206808970630079007A88847AF426CD013
:10222C0000286FD02AF0F8FE6CE04FF000094FF058
:10223C00890844E027F060F9052878D22068007DF1
:10224C000CA91AF05FFA002372E020684146007D69
:10225C002BF040FA064625682F7D2DF0EDFAC0F1E3
:10226C001000A17A0122F3B2C0B2CDE902380123E9
:10227C00CDE90020CDE90421A91D384602221AF02F
:10228C00EDFE404634E0852352E085232EF047FBDB
:10229C0070D1488800286DD1A27A087D0125BDF83F
:1022AC00304000260631CDE902520322CDE900462A
:1022BC0048E0852327E04FF000094FF08508002502
:1022CC002668377D27F018F9A17ABDF83020012354
:1022DC00C0F10500CDE90095CDE902230491C3B20C
:1022EC00B11D384642461BF0D1FD002D42D0284688
:1022FC002EF041FB3EE0AF4204D12068007D0CA9DA
:10230C001AF000FA00232EF00AFB33D1488888BB60
:10231C002CF02CFE042215E040884FF00008002819
:10232C00CED0B9F1000FE2D0CAE78923EBE78923BD
:10233C002EF0F5FA1ED14888E0B9E07AD0B92CF02D
:10234C0015FE002224F034FA14E085230CA8216831
:10235C004A7D7AB94A886AB9E27A012A0AD10A7D99
:10236C00A47A01250631CDE900051046012202941C
:10237C0016F03EF8FF2540E53C2700202DE9F04FF4
:10238C0099B080466FF007000DF11C0B063098F8E1
:10239C0008105A46ADF85200D8F8040012F044F96F
:1023AC00002800F0B5809DF81E609DF81F409DF838
:1023BC002070BDF826502DF079FF844240F0A880A3
:1023CC0025F003004FF6F87480B2A04200F0A08014
:1023DC00012F00F29D80022E80F09A80B8F8280020
:1023EC00ADF84800B8F83200ADF82A009DF822008C
:1023FC00D0B1D8F804109DF81D209DF8383001207C
:10240C002CF0A6F908B1CF2083E0DFF85807C0788C
:10241C00012809D1B8F828002EF04DFA20B14179E5
:10242C0001F0E701083141719DF8210068B1BDF858
:10243C002610FF202AF074FC9DF82110D8B141F031
:10244C0001012C268DF8211016E09DF8390000288A
:10245C0064D09DF83D10FF2902D0002940F0ED809A
:10246C00DFF80407BDF82620C18A8A4240F0EE80CE
:10247C000120222607E0082601F00300012808BFEE
:10248C0046F0110601203746B107DFF8DC9658BF3D
:10249C0067F07F07002808BF37469DF8220030B947
:1024AC0099F80B0018B107F02200222813D117F06D
:1024BC00400A58D0119899F80E200178920718D438
:1024CC000C291BD8012241F290438A401A4245D173
:1024DC00032940D012E0F8B200F0420042287FF409
:1024EC0092AF1198007800F0FE0006287FF48BAFB5
:1024FC00DDE7A1F10C0212F10C0F2AD8B9F8160085
:10250C00BDF82620824203D1BDF8280028F016FE23
:10251C00D32013F0CCFD19B0BDE8F08FBDF8260028
:10252C0027F028FA0238DFF84016B0FA80F0CA8A91
:10253C004109BDF82600904208BF0231002900F085
:10254C008C809DF81E20002A00F03A8101F1400792
:10255C0038E1032902D140780D2804D007A826F0D1
:10256C00B1FB0128D7D0B9F82400B8F84410814247
:10257C000AD198F84620B8F84210B8F82800002381
:10258C000093002310F07EFD9DF82200E0B1B8F816
:10259C004210B8F8280029F001F9B8B30646D8F86B
:1025AC0004009DF81D10F2780844417B8A421EBF3E
:1025BC0000227260F1700130042129F0B1FF7168C2
:1025CC008842A8D30130706099F80E008007A2D51C
:1025DC009DF84D0058B1BDF828002CF043FC0028A4
:1025EC006FD0D8F80400417801F0DF0141709DF8FC
:1025FC002E00A0B3D8F804008179013981718DF8CF
:10260C002E1007F07F0009062CD12AE09DF84D0012
:10261C00002841D004202AF077FE00283FF47BAF3D
:10262C0001464FF4B2700880B8F828004880DFF8F3
:10263C003C05007821F03CFB6DE7109A9DF83C00BE
:10264C0025F09AF830B1012000261CE790F82600FE
:10265C000428F8D10026002015E70027B2E007F087
:10266C007F000746390702D44FF0000A49E0F9B25F
:10267C004A0737D4C9069DF821103DD5C1F3820213
:10268C0012B1072A18BF013A002A08BF074601F009
:10269C00E30040EA82012DE099F86C0001287FF4F8
:1026AC0093AF11980078062803D1BAF1000F7FF48C
:1026BC008BAFE01DBDF82A1080B281423FF42BAFE6
:1026CC0044E1D32013F0F3FCDFF8A40400780028D5
:1026DC0000F0AD80DFF89C1451F82000C0EB001026
:1026EC008100A6E09DF8210000F0E00100F0E3007D
:1026FC0040EAD1018DF82110D8F804004FF4805A2B
:10270C00017299F82600092801D0042829D1B9F8BA
:10271C001610BDF8260088420AD027F02BF90228A3
:10272C0006D09DF8210000F0030001287FF4F3AEE1
:10273C009DF81E0000285BD011989DF83810007889
:10274C00042808BF02296DD0072808BF042900F00F
:10275C00838003287FF4DFAE07A8002113F0E8FA8A
:10276C00D9E6FEB217F0610F49D0F00708D0B8F8DF
:10277C00281007A817F0EAFF002871D007F09F0770
:10278C000025FEB2B80605D52CF009FE07A815A940
:10279C0006F0D0FD700640F13981B8F8281007A872
:1027AC000DF152022B4611F0BBFF002800F0818086
:1027BC00054611980078012808BF4AF0100A25E157
:1027CC0001F1200727F0D6F80138B0FA80F0400963
:1027DC0047EA00069DF81E0000283FF453AE1198FE
:1027EC0000782CF087FB012818BF07F07E0649E61D
:1027FC002CF0D5FD07A815A906F09CFD8BE69DF8DD
:10280C001E00012864D111980078032853D00528A4
:10281C005ED1B8F8281007A80DF15202002311F070
:10282C007FFF78E607A9002012F068FF73E6D14815
:10283C000168D1480268BDF82800904701287FF450
:10284C006AAECE480168BDF828008847CC480168BC
:10285C00BDF8280088475EE607A81AF059FD5AE62D
:10286C002BF06AFA9DF82E100546BDF8280021B908
:10287C00B8F8281088423FF484AFB9F8161081429A
:10288C0004D1B848807800283FF47BAFB8F8281002
:10289C0007A82A460AF0D2FF002800F09E803007D5
:1028AC004AF0040ABDF8260048BFE01DADF85200FE
:1028BC0067E70025AAE0BDF826002CF0D3FA38B162
:1028CC00B8F8281007A80DF15202002311F028FFC8
:1028DC009DF82E0088B328F0ABF900287FF41BAECE
:1028EC009DF83900B8B3109A9DF83C009DF83D1046
:1028FC0024F042FF002873D09DF83D00002878D0CA
:10290C0010992DF065FF9DF82430ADF85200112080
:10291C009DF823209DF821104AF0400A002B08BF97
:10292C000920002A18BF0830002918BF0130D8F838
:10293C0004100A5C013A0A5465E09DF81E00012857
:10294C0004D11198007803283FF4E5AD07A841465F
:10295C0021F04AFDDFE59DF82010BDF82600002986
:10296C00ADF8520000F0CF804020BDF826100BF1DE
:10297C001D0200EAC7099DF820004B461BF088FC9D
:10298C0038B1D8F804004AF0200A017801F03F0170
:10299C0001709DF8390048B1BDF826100BF12000EC
:1029AC0026F072F94AF0400AADF852009DF81E006C
:1029BC00012806D0BDF82810BDF82600002217F01B
:1029CC00D9F9BDF82810BDF826004A4614F090FC41
:1029DC00002818BF4AF0200A15E007F0DF07CFE601
:1029EC00BDF82610BDF828000B2200231DF0BEFBFD
:1029FC0091E5BDF82600ADF852002DF05CFF0028E3
:102A0C0008BF4AF0400A2BF097F90546A01DBDF807
:102A1C00521080B20E1A5B4818BF2E46007801285F
:102A2C0005D1E01DB8F8321080B281422ED178B2B7
:102A3C00B0F1FF3F3FF76FAD002E3FF46CADB8F82F
:102A4C0008002EF094F800283FF465ADB8F8082083
:102A5C00D8F8041005462DF08DF99DF81E100020B5
:102A6C0098F80830B8F8282016908DF85410BDF856
:102A7C00521015ACCDE9006ACDE90204284615F0D8
:102A8C00D7FA68B328462EF070F844E5B8F8281049
:102A9C008142CCD0601CBDF8262080B28242C6D2C6
:102AAC00BDF828008142C2D02DF005FF0028BED011
:102ABC00017901390129BAD8408801218DF85410C7
:102ACC00ADF8600015AD284622F04AFB0028AED0C8
:102ADC00281D20F08DFF0028A9D02AF011FDA6E7B3
:102AEC002048407800283FF416AD00208DF818607F
:102AFC00ADF81900DDF826004FEA3040059005A826
:102B0C002CF030FF07E531073FF52EAF9DF81E1076
:102B1C0001293FF429AF00211BF07AFB20B1407949
:102B2C0001380228FFF420AFB8F84410BDF8520069
:102B3C0028F034FE30B180782BF07EFB013807286A
:102B4C00FFF412AFBDF828002CF08CF918B104205A
:102B5C008DF8200008E7BDF82610BDF828000222E9
:102B6C0043E700BFB026002090630020FE720020D7
:102B7C00CB280020482E03000C2400201424002015
:102B8C0010240020D72800202DE9F04F8FB00C46E0
:102B9C00480718D4200471D4E00400F1CC8120063D
:102BAC0000F1EA81A00700F10082200500F13482D7
:102BBC00600600F13482A00400F16682600400F12A
:102BCC00A782002017E2DFF8D8050178062900F269
:102BDC001082DFE811F00700C0010E020E0208029D
:102BEC000E02C501DFF8BC6596F837104A0700F1F4
:102BFC00C8818A0700F1ED81090740F1FA810621AD
:102C0C00017096F83A00002800F0C58224F056F9BD
:102C1C00002800F0C0820546F068406840788007C4
:102C2C0040F19482287804AB0321002225F058FF50
:102C3C00002800F0798206980188B42916D8B421AE
:102C4C004FF47A720180DFF860054FF40051007880
:102C5C002DF0DDFEDFF85805016839B1DFF85405B9
:102C6C000078FF2814BF2878FF208847F068406858
:102C7C004078C00740F0618209205BE2DFF83C0538
:102C8C00DFF82475DFF818A5DFF8445548F204087E
:102C9C0048F202094FF6FE7B00880290387820F04B
:102CAC005BFA002800F0448106460078D3280DD149
:102CBC00F089404537D0484539D048F20101884267
:102CCC0040F01C81304619F0D5F817E19AF8001045
:102CDC00884219D1012856D0032840F00F81DFF823
:102CEC00CC0400780138012800F20881B078012862
:102CFC0077D0002840F002817078002800F0BE8068
:102D0C00002022F00DFCF9E00A2840F0F780DFF8F3
:102D1C00941491F837003071096A002900F0EE80A4
:102D2C00B01C8847EAE030461DF0C4FCE6E0DFF852
:102D3C0094040078002800F0E1809AF80000012843
:102D4C0040F0DC802CF06EFF002840F0D7807088BB
:102D5C00002840F0D3800AAD122128462CF080FECA
:102D6C002DF0C8FC304629461CF038F9BDF834006B
:102D7C00B0F5285FC0F095800120022123F08CF97A
:102D8C00DFF84C54BAE0DFF824040078013801284D
:102D9C0000F2B4807078DFF80C2460B192F83C003B
:102DAC0092F83D10013082F83C00C0B2884202D942
:102DBC0001200021A0E09AF80100032834D0022859
:102DCC004BD0012840F09A80DFF8F80300780028F7
:102DDC0000F08C802CF026FF002800F0938001205E
:102DEC0085E07078002851D02DF066FA5845DFF850
:102DFC00D8B34FF6FE7103D1BBF81600884207D04A
:102E0C00ABF81610ADF81010532004A924F05EFD99
:102E1C0023F0E4FA2AF0B0FF00208BF826001AF019
:102E2C0053FC4FF6FE7B69E0AB4604ADAB200021B2
:102E3C002A4620F0B1FD04200A955D464FF6FE7B34
:102E4C008DF82C000AA812F0E7FB2DF053FC387813
:102E5C004FF4805141F2883220E0012050714FF440
:102E6C008060ADF8100004A81CF01AFE2DF042FC96
:102E7C00DFF84C034FF4805102680EE013F0CAFFE8
:102E8C00C848406AD0BB1AF01FFC37E002204FF450
:102E9C00805140F6B8328AF8020038782DF0B7FD30
:102EAC002CE0CA480DF10F01006804AA1AF094FC3A
:102EBC0001460298C64D814213D29DF8200010B1F4
:102ECC00FD208DF820000420142204AB8B4629F041
:102EDC0021FA0BEB4B004FF6FE7B012105EB80003A
:102EEC004172B048002180F83B1003E00020AD494E
:102EFC0081F83B000120012102F0CEFC30462BF082
:102F0C0097FACBE6A74991F83E0020B1886A0028D1
:102F1C00F4D08047F2E70020002102220023ADF814
:102F2C00100002208DF8180004A82BF073FC8CE71D
:102F3C0084F400405FE09D4800780138012868D88F
:102F4C009748017803295CD0012962D1417800208F
:102F5C0023F0A2F85DE00120012123F09DF848E068
:102F6C000021322201708F4880F836108E480421DF
:102F7C0000782DF04CFD3CE018F0A7F884F08000B0
:102F8C0039E00521017096F83810890736D596F886
:102F9C003A1099BB052101600120B070002023F08C
:102FAC002FF802202AF0A8FB23E080480078013893
:102FBC0001280BD80020CDE9040004A817F07EFAF4
:102FCC0020B17948022100781FF0F2FB84F0020056
:102FDC0011E00421017096F83810C90709D096F851
:102FEC003A10002942D02BF05FFA0420012102F0A4
:102FFC0053FC84F004000FB0BDE8F08F05200021D5
:10300C00F5E78178022904D101218170002023F099
:10301C0031FF84F48050EEE784F40060EBE723F09A
:10302C004DFFD0B15F4F0546387801383870000637
:10303C0016D05D4E4FF48041307825F0F7FE30B954
:10304C0038692CF077FF10B9287821F041F83078E6
:10305C00402143F698222DF0DAFC5248007810B942
:10306C000B202CF05FFF84F04000C4E74F49097837
:10307C0001390129BDD8032101600120B070012064
:10308C0022F0BEFF01208DE7464EDFF81C914FF079
:10309C00000804AD4FF0000B06F108073F685FB362
:1030AC00D7F804A09AF800000028F7D0F028F5D83B
:1030BC00032100222B4625F013FD0028EED00698A4
:1030CC00018821B101394FF0010B0180E6E74FF483
:1030DC00407086F836802DF05DFB99F800000AA947
:1030EC002DF021FC324886F8368001680029D5D0B5
:1030FC009AF800008847D1E799F800005FEACB7195
:10310C000BD04FF400514FF47A722DF080FC08E094
:10311C0013F074FC84F480406DE74FF400511FF001
:10312C00EDFF84F4005066E7F06840684078C00713
:10313C000CD10E202CF0F6FE08E040F209302DF0F8
:10314C0029FB194800780AA92DF0EDFBF0684068BE
:10315C004078C1073FF44DAF17490968C1B12878D1
:10316C0020F0B6FF10B10E202CF0DCFE0E4D0C2022
:10317C00402143F69822307028782DF048FC40F21C
:10318C000A302DF007FB28780AA92DF0CCFB30E78C
:10319C0080073FF52EAF0E202CF0C4FE29E700BFB0
:1031AC00647200207422002005730020E0260020A9
:1031BC00502800209826002040240020EE360300E2
:1031CC0058280020AC280020906300203C7200207E
:1031DC00786D00202DE9F04FA7B047F66014002A57
:1031EC00CFF6FE7400F041829846002724AE16916B
:1031FC0050F82750254446F827500137032FF7D1B4
:10320C00D2E9020ED8F810501469D8F80860116889
:10321C00A5FB003CD8F800701E93A6FB043A81462F
:10322C0020461D93A1FB05341F941B93A7FB003470
:10323C00229123940446A1FB060111911890A7FB3F
:10324C000901179050691C93334613911A9003FB94
:10325C0000AAD8F80C101E9820977746CDF834E0C9
:10326C0005FB0ECCD8F814E02195850A01FB04ABC4
:10327C00084609911D9907964E460EFB09C9890A05
:10328C0045EA895541EA8B51691AA2461994129163
:10329C00229C1199CDE90AE604FB00111F98556890
:1032AC0004FB0E0E209A139805FB031102FB07007A
:1032BC00D8F804702C460C95189B179D07FB060C30
:1032CC004FEA93234FEA95254FEAA92643EA815307
:1032DC0045EA8C5566EBAB20CDF8509088461091A2
:1032EC000F90B3EB0509219B23981A9904FB03E675
:1032FC0002FB01031B981C9A4FEA902507FB0A312D
:10330C00089745EA8650354604964FEA92264FEACE
:10331C00A827169B46EA815667EBAC22CDF854B031
:10332C000E92B6EB000BD3E900E2129E1F69A6FBCE
:10333C000E4A139206FB02AA5A690F9ECDF800C0E2
:10334C0098680394A9FB074C119206FB0EAA09FB83
:10335C0002C6DA680294ABFB008412920E9B0BFB44
:10336C0002444FEAA12262EBA522CDF88CE0CDF805
:10337C00048003FB076E02FB00438046DDE902205C
:10338C000591141801984EEB0A020019039042EBB8
:10339C000300DDE91D320290D41ADDE914200099F6
:1033AC0062EB0000DDE917321E901098D31A8841A9
:1033BC001D90DDE91B10DDF898E0421ADDE924C010
:1033CC00CDF83CE0A4FB0C161B91A3FB0E191C9131
:1033DC004FEAEC71189104FB01644FEAEE711791FE
:1033EC0003FB01911E9BCDF840C003FB0C441D9BBD
:1033FC00A2FB00BA03FB0E1C4FEAE071169102FB14
:10340C0001A1DDE904320E9062EB030303FB001112
:10341C001B98039A1BEB00031C986141C018029B7C
:10342C004FEA125241EB0C0142EA03321B15159282
:10343C0014932CF005FBDDF884E04646CDF818809B
:10344C00A8FB0EB2DDF81C80239D0492A7FB082973
:10345C00209C0592A5FB0E321E931C92A7FB0432F6
:10346C001B92A5FB082C1D930392C246A6FB0423BA
:10347C00A046099C1F97CDE9013207FB049205FB7E
:10348C0004C7119CDDF8209004FB0A2C139A019DB3
:10349C0002FB0A73DDF828A00793049B06FB095571
:1034AC0006FB0A37059BBBEB030B129B03FB0E7E43
:1034BC0003FB08536EEB0C060996DDE90256079FD9
:1034CC00B6EB050867EB03030793DDE91D53DDF845
:1034DC0040C0ED1AABFB0C73CDE903730F9BDDF809
:1034EC0038E0A8FB0376CDE91D1023981C990196B2
:1034FC000597A5FB0E67029700FB0A101B991F9FEF
:10350C00009607FB0911219F079E02FB0700209ADA
:10351C0004FB0211189A049C61EB00000BFB0247A0
:10352C00179A019C039908FB0242099C04FB0C7737
:10353C0006FB032C169A029B05FB023200FB0E20A5
:10354C00009A891840EB07020598401842EB0C01D1
:10355C00DDE914322CF074FADDF864C0069CDDF859
:10356C002CE0A4FB0C371F9E0797239F0A93A6FB06
:10357C000E38229A40420893A7FB0C531C904FF034
:10358C000000CDE92053A6FB025388410D99059507
:10359C000993A7FB0E531B9006FB018007FB01311F
:1035AC00DDF84490DDF84C80049509FB0E0508FB12
:1035BC000E171A990798A4FB02BA04FB01030C9886
:1035CC00089E04FB00AE129C04FB0C3304FB02E4CB
:1035DC000A9ADDF838C0B2EB060E63EB05021292C4
:1035EC00049A0F9DB2EB0B0367EB04020B92209A2B
:1035FC00059FBA1A109FAEFB076A2096A3FB0564C1
:10360C000894A2FB0C4B0D960A94219E239C04FB60
:10361C000164099E1F9901FB0060199908FB014880
:10362C002299089C09FB0106189817990EFB00A01B
:10363C0003FB0141129B03FB07000B9B0A9F03FB3F
:10364C000511169B02FB03B266EB080303FB0C226D
:10365C00209BDB1942410D98C0185141DDE9143211
:10366C002CF0EEF9CDE9191015E000682044C217D2
:10367C00920742EA9007D1E90023800739462CF0E3
:10368C00DFF9CDE91D1000201C9000201B900020BC
:10369C001A900020199042F22060C2F20000DDF86E
:1036AC0068800C3000214FF000091F903098209159
:1036BC0000EB010ADAE90CE01C99DAE904C71E9C5C
:1036CC00AEFB0125CDE921521D9D2390ACFB0430AE
:1036DC000CFB0500DDF8C0C007FB04001CF809500A
:1036EC00DAE9146BA5F11407C5F13404FB4000FAB8
:1036FC0004F4234340FA07F7343D58BFC717002D95
:10370C0058BF40FA05F31B98219CCC440EFB004596
:10371C0023989CF8044000FB01552299A4F1140055
:10372C0021FA00FEC4F1340105FA01F141EA0E015F
:10373C0045FA00F0343C58BFE817002C58BF45FA46
:10374C0004F1C918199BA6FB08A206FB03229CF8DE
:10375C0008300BFB08227841A3F11407C3F13405A0
:10376C002AFA07F602FA05F52E4342FA07F5343B1E
:10377C0058BFD517002B58BF42FA03F68F1940EBF0
:10378C000503B9F1030F0BD0B80A1F9940EA835017
:10379C0041F804091F91209909F10109083185E7C5
:1037AC00B80B40EA834000F1004042F2206100F186
:1037BC00D460C2F20001086027B0BDE8F08F7047FA
:1037CC0080B5A2B08DF8870020911F921E93002027
:1037DC008DF877009DF88700203801460191C228AA
:1037EC0000F2A2820199DFE811F0C300F30023017B
:1037FC0048019B029B029B029B026D019D01CD0126
:10380C00F2019B029B029B029B029F029F029F0262
:10381C009F029F029F029F029F029B0217024F0270
:10382C009F029F029F029F029F029F029F029F0284
:10383C009F029F029F029F029F029F029F029F0274
:10384C009F029F029F029F029F029F029F029F0264
:10385C009F029F029F029F029F029F029F029F0254
:10386C009F029F029F029F029F029F029F029F0244
:10387C009F029F029F029F029F029F029F029F0234
:10388C009F029F029F029F029F029F029F029F0224
:10389C009F029F029F029F029F029F029F029F0214
:1038AC009F029F029F029F029F029F029F029F0204
:1038BC009F029F029F029F029F029F029F029F02F4
:1038CC009F029F029F029F029F029F029F029F02E4
:1038DC009F029F029F029F029F029F029F029F02D4
:1038EC009F029F029F029F029F029F029F029F02C4
:1038FC009F029F029F029F029F029F029F029F02B4
:10390C009F029F029F029F029F029F029F029F02A3
:10391C009F029F029F029F029F029F029F029F0293
:10392C009F029F029F029F029F029F029F029F0283
:10393C009F029F029F029F029F029F029F029F0273
:10394C009F029F029F029F029F029F029F029F0263
:10395C009F029F029F029F029F029F029F029F0253
:10396C009F029F029F029F029F029B029B029B024F
:10397C001E9800788DF87600209800788DF87500E8
:10398C001F9800788DF874009DF876009DF87410DF
:10399C0088420EDBFFE79DF876009DF87410411A03
:1039AC009DF8752000209142A8BF01208DF877006A
:1039BC000DE09DF874009DF87610411A9DF8752065
:1039CC0000209142A8BF01208DF87700FFE7AFE1FE
:1039DC001E980088ADF8720020980088ADF8700031
:1039EC001F980088ADF86E00BDF87200BDF86E101F
:1039FC0088420EDBFFE7BDF87200BDF86E10411A6D
:103A0C00BDF8702000209142A8BF01208DF87700EE
:103A1C000DE0BDF86E00BDF87210411ABDF87020B3
:103A2C0000209142A8BF01208DF87700FFE77FE1CD
:103A3C001E9800681A902098006819901F980068CA
:103A4C0018901A98189988420BD3FFE71A9818996E
:103A5C00411A199A0020914228BF01208DF8770055
:103A6C000AE018981A99411A199A0020914228BF15
:103A7C0001208DF87700FFE75AE11E980068179037
:103A8C002098006816901F98006815901798159943
:103A9C0088420BD3FFE717981599411A169A002004
:103AAC00914228BF01208DF877000AE015981799EC
:103ABC00411A169A0020914228BF01208DF87700F8
:103ACC00FFE735E11E9800788DF8530020980078B8
:103ADC008DF852001F9800788DF851009DF9530015
:103AEC009DF9511088420EDBFFE79DF953009DF9BB
:103AFC005110411A9DF9522000209142A8BF01207B
:103B0C008DF877000DE09DF951009DF95310411A85
:103B1C009DF9522000209142A8BF01208DF877001A
:103B2C00FFE705E11E980088ADF84E00209800884C
:103B3C00ADF84C001F980088ADF84A00BDF94E0056
:103B4C00BDF94A1088420EDBFFE7BDF94E00BDF906
:103B5C004A10411ABDF94C2000209142A8BF012007
:103B6C008DF877000DE0BDF94A00BDF94E10411AF1
:103B7C00BDF94C2000209142A8BF01208DF87700A0
:103B8C00FFE7D5E01E98006811902098006810900F
:103B9C001F9800680F9011980F9988420BDBFFE774
:103BAC0011980F99411A109A00209142A8BF012038
:103BBC008DF877000AE00F981199411A109A00209D
:103BCC009142A8BF01208DF87700FFE7B0E01E9866
:103BDC0000680E90209800680D901F9800680C905B
:103BEC000E980C9988420BDBFFE70E980C99411A42
:103BFC000D9A00209142A8BF01208DF877000AE0B1
:103C0C000C980E99411A0D9A00209142A8BF0120E0
:103C1C008DF87700FFE78BE01E9800680B902098DA
:103C2C0000680A901F98006809909DED0B0A9DEDA5
:103C3C00091AB4EE410AF1EE10FA12DBFFE79DED22
:103C4C000B0A9DED091A30EE410A9DED0A1A00206F
:103C5C00B4EE410AF1EE10FAA8BF01208DF87700FE
:103C6C0011E09DED090A9DED0B1A30EE410A9DED18
:103C7C000A1A0020B4EE410AF1EE10FAA8BF012096
:103C8C008DF87700FFE753E01E9890ED000B8DED5B
:103C9C00060B209890ED000B8DED040B1F9890ED0A
:103CAC00000B8DED020B06980799029A039B1EF0F0
:103CBC004BFCD0B1FFE79DED061B9DED020B51ECCB
:103CCC00110B53EC102B08F0A5FC41EC110B9DEDE6
:103CDC00040B51EC110B53EC102B1EF035FC00288F
:103CEC0018BF01208DF8770019E09DED021B9DEDAA
:103CFC00060B51EC110B53EC102B08F08BFC41EC28
:103D0C00110B9DED040B51EC110B53EC102B1EF011
:103D1C001BFC002818BF01208DF87700FFE707E097
:103D2C0000208DF8770003E000208DF87700FFE786
:103D3C009DF8770022B080BD2DE9F04F89B026F0B8
:103D4C0061F9DFF810158122DFF81485DFF814A56E
:103D5C00DFF82045DFF814E50A70DFF8FC14086082
:103D6C00DFF8F804FF2101700020DFF80415A8F833
:103D7C0000008AF80000DFF8F0040968007891F878
:103D8C0008B04FF6FE718EF8000059448AB2A16853
:103D9C00D1F80031DB899A4200F267810422DFF806
:103DAC00DC54A8F80020DFF8D02412689668330E93
:103DBC00CEF80C60C6F301592B706FF0FF0303EAC9
:103DCC001627B3B2D1F8B86047EA1327AEF80470DF
:103DDC0036781EB9B9F1020F00F04781B9F1030F23
:103DEC0000F043811B0A03F0070316B1002B00F00F
:103DFC003C81DFF88CC4042B9CF800C008BFBCF1DC
:103E0C00000F00F032813EB1DFF878643678862EF0
:103E1C0002D1022B40F02981BB0416D4BBB203F0B3
:103E2C000703022B08BFBCF1000F20D0DFF854149D
:103E3C000978862909D10020764626F01BF9DFF88F
:103E4C004004B64690F800C0307800284ED0BCF143
:103E5C00000F4BD1012800F0088103283FD0022825
:103E6C0044D1BEF80400400740F0FF803EE0D1F89A
:103E7C00D40090F88300022800F0808027460520AB
:103E8C00147BF246A946A8F800002CF0F7F9054679
:103E9C00DFF8F003007886286DD1B868016C0968EA
:103EAC0011B9D0F84C05804760B2002100262CF0E7
:103EBC00E0FEB9680A6C12685077086C0068867767
:103ECC00086C0068C47728462CF071FDBAF8041011
:103EDC0099F8000001F0100120F0FCFE4EE0BEF855
:103EEC00040000F00700032840F0BF80BEF8040077
:103EFC00010700F1BA80810402D4810500F1B5807C
:103F0C009EF80E20C2F38107012F00F0AE809609B7
:103F1C00012E00F0AA80B9F1010F11D840F0020176
:103F2C0001F0070103290BD117B93F2A40F29D80FC
:103F3C0037B9A168D1F8AC100978002900F0958048
:103F4C004FF6FB71B9F1020F0BEB010C19D1CF4BF2
:103F5C00D95D9B5D03EB01090023402AB7FA87F278
:103F6C0038BF012352091A40430616D4002A08BF51
:103F7C0009F1020915E028462CF019FD2AF0FCFD88
:103F8C0075E0C14B402AD95D9B5D03EB010908D359
:103F9C00420648BFA9F1020903E0002A18BF4FF0FE
:103FAC000209C0F300205FFA89F11FFA8CF30A1A98
:103FBC008EF801009A4258DC60440391B346401AD3
:103FCC00A168AEF806007430D1F8501280B2884760
:103FDC00A6490028886048D07421CDE901972BF0C0
:103FEC003FFDA24F0020B870A548007820B9387961
:103FFC0000F020008AF8000078789AF80010DFF8BA
:10400C0078C24FF000092E4600299A493DD000286D
:10401C004FF000003AD1B88800F00700032807D011
:10402C00012832D18868D0F8D40090F8820060B3AF
:10403C00C8684069007818B12BF0D2FAFE280DD070
:10404C008C488068D0F84C02804738B98948806821
:10405C00D0F844028047002800F0F780834F0120FD
:10406C00B870DFF814C22E4610E02BF0DBF82CF001
:10407C0005F9814900240A6813681C7112680A60EA
:10408C002CF095FC09B0BDE8F08F0020BC6804F161
:10409C00740184F830B06160A1657978BB88FA88C6
:1040AC000029A381029B228184F83A30337808BF1F
:1040BC00994697F80EB084F84990019DA4F85C20BD
:1040CC00FF22B8F80030A273CBF301195E1A797B8A
:1040DC00A8F8006001F0780160F3820101EB09009F
:1040EC002074280600F0AE80DCF8000004AF039AC0
:1040FC0010FA86F000F1080138462CF0EBFD56FA68
:10410C0085F0CBF38105A8F80000207C00F0400876
:10411C00CDB3B9F1020F06D1B8F1000F03D0B4F84A
:10412C00440004AF06E0BDF810000237A4F84400C8
:10413C00A4F84200564EF189884203D04FF6FF7125
:10414C0088425ED1032D11D104F1320039462CF096
:10415C00AFFC464CF11CA068323029F038FD4549C3
:10416C0000284ED094F80EB008370EE037F8020B4A
:10417C00B1898842608606D04FF6FF713B4C88426D
:10418C003C493ED101E03B49384CBBF1400F20D3B8
:10419C00B9F1020F06D16DB9B8F1000F0AD133484D
:1041AC00806803E0A068017C490603D43988023793
:1041BC00A0F84210BBF1C00F06D32C4C3946A068B6
:1041CC0028302CF075FC03E0284C3888A168088551
:1041DC0028498968A088D1F8AC201278B2B1B9F11D
:1041EC00020F13D200F00700012802D003282FD1B0
:1041FC001E4C6DB9264AA368D289B3F8423093425B
:10420C0006D027F0EAFC1CF0FDFA30E700F00700BE
:10421C00032806D0012815D1D1F8D40090F88200DB
:10422C0080B1A068D1F848128847104A50B90020D4
:10423C00D17B9070907BC1F3011100F078000844A1
:10424C00916808740AF098FF11E7084FB87808E7EE
:10425C00064CDDE716730020A07200201B730020B3
:10426C00F07200201973002018730020A025002084
:10427C00D47200200C01002024720020287300202E
:10428C00277300201E730020983603009436030019
:10429C00487100202DE9F84305460C46480414D417
:1042AC00A00025D4A0075FD4600500F18180200513
:1042BC0000F10881200700F13D81600040F1F88099
:1042CC001DF070FD24F08044F2E02BF0D7FFDFF8F6
:1042DC0024140F6D3FB1D7E90A1202F0E04201F04D
:1042EC000A0189184BD02CF062FB24F48044DFE0E7
:1042FC00BB48DFF80474016841F080010160B878B4
:10430C00012804D1042026F01FF90020B8702BF0EE
:10431C00B5FF0646B348406D016804208847DFF8B6
:10432C00E0130A68904219D12A7EBAB1FA68AAB190
:10433C00DFF8C003806C002800F09780C16840F65D
:10434C0003020988914206D0C06840F60401008837
:10435C00884240F08A8005F1140088E040F6C412CF
:10436C000860C5E9042284E00BF00EFFDFF884033B
:10437C00006C002840F09D8024F0020498E0D7E9FE
:10438C000A65D7E90A12AA43B143C7E90A122CF00D
:10439C000EFBB8680028A8D056EA0500A5D0D7F8BF
:1043AC0008C03869B7F9301032462B46E0479CE715
:1043BC002BF064FF054629F05BF8002800F0B7806D
:1043CC00CC48876B002F00F0B280DFF82C830420E0
:1043DC00CC49002288F81800C6482AF0BFFF2CF000
:1043EC0010FBC9482CF0DDFAC4480068006B80470C
:1043FC00C8F810000125042088F8025026F016FF9A
:10440C00386990F82810C8F80400490703D5436AA6
:10441C0004210022984701201FF076FCD8F80400F4
:10442C00457616F041F9D8F8040081680B461A4617
:10443C005B684BB11E88A6F60306072EF7D805FA63
:10444C0006F616F0830FF2D0537B03F0F003013322
:10445C0053730023FD6853602D88A5F60305012DC9
:10446C0000F28A80C8F810309FE005F1100023F0AC
:10447C0061F930462CF09BFA26F0F0FE78B12E6AEA
:10448C0028466FF4807100224FF00073B0479948B2
:10449C00806B10B11DF086FC01E044F00204EE6963
:1044AC002846002100224FF08063B04724F00054CE
:1044BC0034B1984821462830BDE8F8432CF06BBB4A
:1044CC00BDE8F8838C4EB078012804D1042026F086
:1044DC003BF80020B07026F0C1FE38B170686FF464
:1044EC00807100224FF00073056AA847306950B103
:1044FC0082480068006B804732697168801A000B33
:10450C00C860002030617B4D8149002228462AF08A
:10451C0025FF02203076286C20B17E4802212830FD
:10452C002CF039FB1DF03EFC24F40064C0E72CF0A9
:10453C0068FA41E02BF0A2FE054628F099FFA0B1E5
:10454C00DFF8B48198F8000000070ED498F9000049
:10455C0000280AD4684616F0D9FB08B1009820B19F
:10456C00DFF8B49199F8610048B32CF04AFA1DF0C9
:10457C0019FC24F008049BE7034633F8385FA5B117
:10458C0090F8445090F8456005F0F00580F84450E0
:10459C0006F0F005013580F8455000255360C563E1
:1045AC004587507B00F0F000507358480022C261E0
:1045BC000160012029F0D0FC24F4806478E7002607
:1045CC000127602E10D009EB0600817A31B1877279
:1045DC00407A07FA00F0C0B225F0D0FF2036F0E7A1
:1045EC00CC2108408C010010032088F818004648A4
:1045FC002CF0D7F92CF005FA444F3E4D0022786987
:10460C0000207861F968F860284644492AF0A6FE33
:10461C003A480068006B8047D8F80C10D8F8202076
:10462C00411A02EB1130B0EB113F38BF4FF0FF30A5
:10463C0098F82410C8F8200021B1D8F80810B0EB75
:10464C00C12F20D929F098FCB8B140F60900414699
:10465C0021F83C0F002048804A7B02F0F002013226
:10466C004A730A7B02F0F0020A734860F861396001
:10467C00B8F83E0010F4406FFAD00020C8F82000C3
:10468C00012088F8240022F06DF9254800210160F2
:10469C000220002129F060FC022025F055FF10209B
:1046AC0014F02EFD98F8010020B9D8F80400503011
:1046BC002CF06DFA1B48807810B90D2014F020FDF9
:1046CC0098F8250028B1002088F82500052025F051
:1046DC003BFF002088F818001348C8F81C00022083
:1046EC00B5F85610B5F85420914208BF07201CF0BD
:1046FC006BFC3CE7D8200020781E00208C010010B9
:10470C00A427002059D40200146900200010044092
:10471C00494101001820002008640020151E0200E9
:10472C0000000460E0350300313B01002DE9FE4F31
:10473C008846080426D45FEAC87004BF0020BDE890
:10474C00FE8FE54805682CF0E0F904462CF0DBF907
:10475C0060434FF47A714FF6FF72B0FBF1F14FF6F4
:10476C00FF70002D00F01A812B886C88CB1A9BB23D
:10477C009C4240F21C81E31A94B2A342B8BF1A4681
:10478C00ED68EEE7DFF840A3CDF804809AF800005E
:10479C001EF0E2FC002800F0FC80064600780128A0
:1047AC0040F0EC80DAF8041096F83390D6F814B098
:1047BC0096F8138021B148468847002840F0DE80E7
:1047CC00718896F83100022228F0A2F805460028DC
:1047DC0042D0287A297CA0F10108FF2900F0BB8087
:1047EC00707F4F46C00718BF0027E97C287D014425
:1047FC00B94204D8E974FF2101FA00F06874A96980
:10480C00A87C96F83020896A10FB0710F16A2BF00F
:10481C00B1FA287D697CB7FBF0F202FB1070012223
:10482C008240D2B20A436A74C8457CD196F83010E3
:10483C00AB7C13FB0713A9698B844FF4FF7303FA4A
:10484C0000F0C0B21043FF2868746CD1287C1FF0B4
:10485C002FFAFF2028747FE0707FC00700F08E8055
:10486C00B07F2BF057FB002800F0888004461C20FA
:10487C002CF07DF9002800F081801C2105462BF0DE
:10488C00EFF8B07F02A929F04DF99DF8090002213B
:10489C002875284629F0F0F9708896F8312096F89A
:1048AC00301096F83330A880287DEA71FF2202FA86
:1048BC0000F0687460680078A9742874302013FBC9
:1048CC00010080B228F020FD0028A8615DD00446CC
:1048DC001A20B11C2060708CA080A01D2AF06CF8EE
:1048EC00F27F04F13000B17F96F82830C4F81CB088
:1048FC0084F81980A062307CE273744A2175637568
:10490C000121A075928C2282F28EA285F28C628299
:10491C00B6F81100A4F817009AF8000085F8089072
:10492C001DF046FF55E72CF0F0F804462CF0EBF8A0
:10493C0060434FF47A71B0FBF1F06549288063480D
:10494C00097800794843642148436249097800FB9F
:10495C000100688000E04F46E87C297D6A7C0144B8
:10496C000139B94218BFFF2A0CD186F83300708880
:10497C0006F11C0186F834201AF0E1FF304629F0CC
:10498C0057FD03E7C845F9D1EFE7284629F084F92C
:10499C00F4E7019880F40040BDE8FE8F92B28242A9
:1049AC004BD04948012100782CF031F845E0A8792A
:1049BC00022806D1287CFF2837D0A86929F038FDB9
:1049CC0033E02CF0A2F804462CF09DF860434FF431
:1049DC007A71B0FBF1F03F49288095F838000978DE
:1049EC0088421BD295F83620FF2A06D195F837203D
:1049FC00013085F8380085F8362095F8351095F893
:104A0C00394082F0FF0300200126C7B2A7421DD215
:104A1C0006FA07F71F4214D10130F6E7EA8BA87E9D
:104A2C0095F82A10E92324F0F1FA284629F034F9F4
:104A3C002548012100781DF0BBFE88F00100BDE87F
:104A4C00FE8FFBB201441A4385F83620AB8F95F8E4
:104A5C003440C8B204FB10339EB2A64203D2FF22EC
:104A6C0085F8362002E0FF2A08D12346184A174E53
:104A7C001278367972436426724302E095F83A2034
:104A8C0023466A802A8D0E0606D022F0200244436B
:104A9C002A852A6C224404E042F020012A6C2985E4
:104AAC00297A85F82E10E9796A6285F82D10D9B229
:104ABC0069840549496811B188470028B8D105F1C6
:104ACC00100006F00DFBB3E70427002090630020D4
:104ADC00B6280020BC280020A45100202DE9F04F5E
:104AEC00C3B00DF1450B88460146914658462BF054
:104AFC00D9FF08F0080500260DF1040A042E39D858
:104B0C00F4B25146204626F096F90D2803D00746FC
:104B1C000A2801D17DE17DBB204659461EF044FD9B
:104B2C0001360028EAD0002D51D10BF137010DF1DF
:104B3C00860002222BF03EFABDF886009DF83A1052
:104B4C00ADF8C800C80700F083800AF1370732A916
:104B5C00022238462AF0B8F89DF83A10012877D18D
:104B6C0001F0FE00FF2104228DF83A0038462BF0AC
:104B7C001EF86FE001274CE10220214641225B46E2
:104B8C0020F0CEF90746B4480BF10B012BF0E8FBF3
:104B9C0068B90BF1370120462BF01EFF38B90BF129
:104BAC003B0120462BF018FF002800F032810C202E
:104BBC002CF08BF8002800F019812BF0F5FDB9F1E1
:104BCC00000F18BF4FF0010984F80A9005E19DF819
:104BDC004500400661D49DF84600C00700F0A48053
:104BEC0032AF0DF1450138462BF05CFF0DF1860913
:104BFC0001A948462BF056FF9DF8BC00810700F137
:104C0C00288110F001054FF03B0007F1370108BF78
:104C1C003720042248442BF0CDF90220002D08BF88
:104C2C0001209DF8BC10084349468DF8BC0001A832
:104C3C002BF038FF08F060009DF805104038B0FAF2
:104C4C0080F001F0FE01400908448DF805006BE08E
:104C5C00880733D44FF0FF300BF122062BF082F88B
:104C6C00384631462AF030F80AF12C05E0B33846C4
:104C7C0029460A222BF09EF932AE28460A223146EA
:104C8C002BF098F9304639462BF0B5FE002800F091
:104C9C00B98001A82AF067FFB4E04FF0FF302BF089
:104CAC0061F832A839462AF00FF80BF1220930B31B
:104CBC00384649460A222BF07DF927E00AF13B06DB
:104CCC0032A90222304629F0FFFF9DF83A10012844
:104CDC0040F08E8001F0FD00FF2104228DF83A0097
:104CEC0030462AF064FF8DE0284631462BF083FED7
:104CFC00002800F0928032A928460A2280E038462B
:104D0C0049462BF078FE002800F0958008F06001F1
:104D1C009DF804006039B1FA81F100F0BF00490937
:104D2C0040EA81108DF804009DF84600810608D5F4
:104D3C000AF10B000BF10B0102222BF03BF99DF851
:104D4C004600400613D59DF805000BF10D0101221C
:104D5C0040F040008DF805000AF10D002BF02AF907
:104D6C000AF112000BF1120110222BF023F99DF81D
:104D7C004500800605D59DF8040040F020008DF814
:104D8C0004000AF10E000BF10E0104222BF012F9B3
:104D9C00BDF88400214641225346ADF84300022061
:104DAC0020F0BEF807462C480AF10B012BF0D8FA7C
:104DBC0058B90AF1370120462BF00EFE28B90AF13A
:104DCC003B0120462BF008FE18B30C202BF07DFF86
:104DDC0060B12BF0E9FC0120A0722048214600783C
:104DEC002BF046FD20462BF0C6FD12E0102710E0FC
:104DFC0041F00100314604228DF83A000AF13700E7
:104E0C002BF0D8F801AB02202146412220F088F883
:104E1C000746384643B0BDE8F08F32A839462BF030
:104E2C00EAFD0128EED132A829462BF0E4FD012839
:104E3C003FF42FAFE6E70AF12C0732A80A223946D5
:104E4C0029F042FF00287FF433AF384649462BF057
:104E5C00D2FD0C27DDE700BF906300200D7300200E
:104E6C002DE9F04F8FB00C46080430D4A00448D480
:104E7C00A00652D4E00600F10B81600600F11A8105
:104E8C00200600F11E81E00500F12081200500F1D3
:104E9C002281E00400F13581600400F13C81A0071F
:104EAC0000F15081A00500F15E81200700F16881BE
:104EBC00600500F16B81E0034FF0000540F1F680D6
:104ECC0020F076F9BA48C57084F48035EEE0B64827
:104EDC0000781EF041F988B10178B44A05460020EB
:104EEC00582808D0135C08308B42F9D1104450F884
:104EFC00041C28468847284629F09AFA84F4004571
:104F0C00D4E022F08FF828B10546FDF737FA284691
:104F1C0029F08EFA84F40055C8E0A34F202138788C
:104F2C0023F084FFDFF888820125D8F808100843A5
:104F3C0017D02BF0EAFD05462BF0E5FD68434FF446
:104F4C007A71B0FBF1F0D8F80810401A4FEA50050E
:104F5C0038BF6FF00045002908BF0D46002D00F04A
:104F6C00AE8000200421002227F07AFF06464FF085
:104F7C00060A4FF0FF094FF6FF780DF1080B002ED3
:104F8C004DD0304604210022374627F069FF0646F3
:104F9C003889401B38BF002038810004EFD1B87B22
:104FAC00D0B301280AD17889400707D4386887F82C
:104FBC000DA0B721407B21F0EDFFE0E739685A46A0
:104FCC008DF80690ADF80480086AC97F0FF02CFBB1
:104FDC0001281BD1B87BB97A8DF838000907788A7B
:104FEC0040F08002ADF8362006D540F4C070ADF824
:104FFC003600387B8DF83A00786910B1007BADF83B
:10500C001800584601A9002204F094F9387B87F85F
:10501C000DA019F0BDFAB2E701207873AFE7DFF805
:10502C009081614F28F0B7F800200121002227F071
:10503C0017FF18B1387820211DF0BAFB002004218D
:10504C000022002627F00CFF60B306890421002201
:10505C0027F006FF28B10289B1B2914228BF16464B
:10506C00F4E7A8B2B1B2814217D9D6FA55F0202193
:10507C0080B2420038782BF0CAFC2BF046FD054676
:10508C002BF041FD68434FF47A71B0FBF1F609E067
:10509C000AF086FC84F0100508E0387820211DF019
:1050AC0087FB0026C8F8086084F0200528460FB05E
:1050BC00BDE8F08F0EF0BAFD84F04005F6E7002550
:1050CC00B0E729F023FF84F08005EFE727F0FCFC24
:1050DC0084F48075EAE71FF059FC37480078012802
:1050EC000CD13448007848B14FF47A7100FB01F2CE
:1050FC002D484FF4006100782BF086FC84F4006599
:10510C00D4E72B48017819B1002101701FF03EFC47
:10511C0084F48055CAE72A48006880B12749097889
:10512C0001290CD180472748006800B180471E48F0
:10513C004FF480414FF47A7200782BF065FC84F4C4
:10514C008045B3E72048007890B102AD28462BF09B
:10515C00BEFB2BF09FF81D490B781D490A78294698
:10516C001EF04EFD09E018F0CBFD84F400759DE7B0
:10517C001848418B01202BF0F0FC84F0020595E7D8
:10518C000B48012184F0080581708FE712480078E4
:10519C00022808BF21F055FB0E480121808C2BF012
:1051AC00CEFC84F4806581E7FE720020242C030081
:1051BC00B0260020C1280020C2280020C0280020D2
:1051CC00FC230020082400209A280020C528002059
:1051DC00C628002090630020E026002070B586B021
:1051EC000C46080403D4600433D400203EE0C648C7
:1051FC0000781DF0B1FFB8B305460078A0F1D001DE
:10520C0006292BD9A0F131010629C0F08A801A2871
:10521C0044D0FD2857D0FE286FD1162028F074F802
:10522C00002800F07E800646023014212AF018FC7B
:10523C00932030802A796878A978EB883381307193
:10524C003174012A18BF0222B271E978A87831753D
:10525C004DE025F02BF984F4804007E001208840D4
:10526C0010F0750F04D05CE084F4004006B070BD03
:10527C0001294BD1A54E6878B178814251D006F8FE
:10528C00020FA34B4FF000700021324626F0E6FAD5
:10529C0016F8010C9F4981F8680042E0302028F094
:1052AC0033F800283DD0302106462AF0D9FB922055
:1052BC00A91D3070A87B0328307169D1B01D08225C
:1052CC002AF058FD66E00A2028F01EF848B306467E
:1052DC000020C6F80600C6F8020091203080A8789D
:1052EC006978EA7870713171B271A988318129F0CD
:1052FC0045FF002840F084808AE02846FAF798FEA3
:10530C0078B1A87829461EF0D3FCADE7E889A0F562
:10531C000041062913D8DFE801F0087F8A0498B011
:10532C00BB00284629F084F89EE728461DF0A0FA19
:10533C000028F6D06988824B06460120B2E048F27C
:10534C003601884200F0B58048F22001884200F016
:10535C00B88048F22101884200F0BB8048F222015B
:10536C00884200F0BE8048F23401884200F0C180CF
:10537C001328D6D100206E460290CDE900002846B5
:10538C00314629F01DFA69886E4B4FF080705AE057
:10539C000888F080D5F80200C6F81200E88AA6F852
:1053AC001B00E87BB073288A3082688AF082287DE3
:1053BC003076687D002818BF01207076687E002842
:1053CC0018BF0120B076287E7077E869306295F8B6
:1053DC00200086F82400A88DF08495F82E0086F81D
:1053EC002800A88C70852BF0C2FB0028F06298D0A6
:1053FC00AA8CA96A2AF0BEFC287D29F0BFFE20B138
:10540C00007931461EF054FC8BE7F06A2BF0ADFBB3
:10541C00304629F00DF884E728461DF029FA0028BB
:10542C003FF47FAF6988454B064602203AE06E4652
:10543C00122130462AF014FB2846314619F0CEFDD5
:10544C0069883D4B042032465AE06E46182130469E
:10545C002AF006FB2846314629F018FE6988354BA0
:10546C001020324626F0FAF9039818B12BF07DFB88
:10547C00002003900598C8B953E7284627F08FF809
:10548C0000283FF44EAF6988294B0646202009E0DE
:10549C00284627F084F800283FF443AF6988234B53
:1054AC0006464020324626F0D9F930462BF05DFBFB
:1054BC0037E7A8696988184B2BF035F94FF4800051
:1054CC001EE0A8696988174B2BF02DF94FF480402A
:1054DC0016E0A8696988144B2BF025F94FF400509D
:1054EC000EE0A86969880E4B2BF01DF94FF40040B3
:1054FC0006E0A8696988094B2BF015F94FF4801068
:10550C0026F0ACF90DE700BFD55A00205427002037
:10551C001FDC02009063002021C80200F7C70200C4
:10552C004BC80200CDC70200A3C70200EF3802002F
:10553C009538020065C10100E58901007D2B020050
:10554C00DD2B02007367020010B594B0129000209E
:10555C008DF82F001298807E1EF062FD0A900A983A
:10556C0020B9FFE702208DF84F0091E11298C06935
:10557C0011901198007820B9FFE702208DF84F00A8
:10558C0086E111980078800001302BF0F0FA0F9032
:10559C000F9820B9FFE710208DF84F0078E12AF022
:1055AC005FF917F03FF98DF82F009DF82F0038B1F7
:1055BC00FFE70F982BF0D9FA10208DF84F0067E118
:1055CC0000208DF827008DF82D008DF82E00FFE7B8
:1055DC009DF82E0011990978884280F2FB80FFE734
:1055EC0011989DF82E10C1EBC10100EB4100013068
:1055FC00109000208DF82F001299887E8989109ABE
:10560C00B2F8012012F002FA8DF826001299887E69
:10561C008989109AB2F801200CAB23F061FA8DF84D
:10562C0025009DF82600FF2804D0FFE79DF82500F3
:10563C0020B9FFE787208DF82F00A0E010980078A4
:10564C00002840F09780FFE71098C0789DF836103E
:10565C00884240F08A80FFE79DF837004007002819
:10566C007ED5FFE7109880884FF6FF71884232D1C3
:10567C00FFE71098C08870BBFFE701208DF827006A
:10568C0047F26820C2F2000003689DF8262016211C
:10569C0012FB01335A89DA8003689DF8262012FB2D
:1056AC0001339A891A8103689DF8262012FB013375
:1056BC0000220892C3F80E2002689DF8260010FB09
:1056CC00012101F10E00123104222AF053FB08983B
:1056DC008DF82F0043E001208DF82700109880886A
:1056EC0047F26821C2F20001D1F800C09DF82630C3
:1056FC00162213FB02C3D8801098C0880B689DF843
:10570C00261011FB023108811098C07827F070FC2C
:10571C0008B3FFE747F26820C2F2000003689DF867
:10572C002620162112FB01330022C3F80E2002683A
:10573C009DF8260010FB01200E3007901098D0F831
:10574C000A100691C07829F0D9FD069902460798EF
:10575C002AF010FBFFE700208DF82F00FFE703E095
:10576C008C208DF82F00FFE703E08D208DF82F00A3
:10577C00FFE703E000208DF82F00FFE7FFE79DF81F
:10578C002F0000B3FFE79DF82F000F999DF82D20F7
:10579C0001EB82014870109800780F999DF82D202C
:1057AC0001EB820188701098B0F801000F999DF8F8
:1057BC002D2001EB8201A1F803009DF82D00013092
:1057CC008DF82D00FFE7FFE79DF82E0001308DF8D6
:1057DC002E00FDE69DF82700012828D1FFE747F2AF
:1057EC000730C2F2000000781621414347F26820CE
:1057FC00C2F20000026856202AF014FF8DF82F0028
:10580C009DF82F0080B9FFE747F20730C2F2000085
:10581C0000781621414347F26820C2F2000002686A
:10582C0056202AF005FFFFE70CF004FAFFE79DF87D
:10583C002D000F9908700F98007838B9FFE70F9971
:10584C00002048700F9901200870FFE7129A92F817
:10585C000AC0907E02F10E0192890F9BEE46002445
:10586C000594CEF80C40CEF808C04FF0010CCEF8E1
:10587C0004C0CEF800C017F0C2FC0F982BF075F9DD
:10588C0023F0CFFE21F0EDFC05988DF84F00FFE7DB
:10589C009DF84F0014B010BD7FB50138062800F2FA
:1058AC00DE800C46DFE800F00428465E7A8C990016
:1058BC00B54800780138012800F2D180002C00F0A6
:1058CC00108100200321002423F070FEAB4DAC4E60
:1058DC00042004213222287030782BF098F808200C
:1058EC00002109F0B7F830786C704FF4805104B097
:1058FC00BDE870401DF002BC002000252AF022FB00
:10590C00A0480121017004208DF80D0024B19A48A3
:10591C00C586072028F070FB9848042132220570B8
:10592C00974800782BF073F8934890F8371001F0F3
:10593C00FE0192E0944800780138012800F28F8033
:10594C008F480421322200782BF061F8002C00F0F3
:10595C00E280894C894801210170E069E0B324F0B0
:10596C0071FAFAE701208DF80D0054B1824800213C
:10597C00874A80F8361085482AF0E0FC072028F08A
:10598C003BFB7E480021322201707D482AF0B3FF98
:10599C00794890F8371001F0FD015EE002208DF897
:1059AC000D00754854B30021794A80F836107748B9
:1059BC002AF0C4FC0020032123F0F8FD072034E07A
:1059CC006D4C03208DF80D0094F8360008B90120B9
:1059DC00A0712078002854D07FBD00258DF80D5083
:1059EC0094B313F0E7FB65480D21C822057062489B
:1059FC0080F8361062482AF07EFF29E0082180F8F2
:105A0C00361061490978012911D890F83A0070B91B
:105A1C0000200DF10A018DF80A00522021F056FFEA
:105A2C0029F028FF25F072FB002028F0E5FA5348F6
:105A3C0000213222017052482AF05DFF4E4890F846
:105A4C00371001F0FB0108E04B48022180F83610BA
:105A5C00494890F8371001F0EF0180F837104648AC
:105A6C00016A0029B8D090F83600002203238DF883
:105A7C000C004348007803A900910A2122F0D3FFBF
:105A8C007FBD20692AF056FA0028A5D13C4D4FF471
:105A9C008041287823F0CAF900289DD1002604F112
:105AAC001000C4E9056627F039FE28784FF48041D0
:105ABC001DF024FBA079012806D194F836000B28A0
:105ACC0004BF002084F836002C48A6710178062902
